{
  "_format": "hh-sol-artifact-1",
  "contractName": "CollectionFactory",
  "sourceName": "contracts/tokens/erc-721-collection/CollectionFactory.sol",
  "abi": [
    {
      "inputs": [
        {
          "internalType": "address",
          "name": "_collectionLogic",
          "type": "address"
        }
      ],
      "stateMutability": "nonpayable",
      "type": "constructor"
    },
    {
      "anonymous": false,
      "inputs": [
        {
          "indexed": true,
          "internalType": "address",
          "name": "collection",
          "type": "address"
        },
        {
          "indexed": true,
          "internalType": "uint256",
          "name": "salt",
          "type": "uint256"
        },
        {
          "indexed": false,
          "internalType": "string",
          "name": "name",
          "type": "string"
        },
        {
          "indexed": false,
          "internalType": "string",
          "name": "symbol",
          "type": "string"
        }
      ],
      "name": "CreatedCollection",
      "type": "event"
    },
    {
      "anonymous": false,
      "inputs": [
        {
          "indexed": true,
          "internalType": "address",
          "name": "previousOwner",
          "type": "address"
        },
        {
          "indexed": true,
          "internalType": "address",
          "name": "newOwner",
          "type": "address"
        }
      ],
      "name": "OwnershipTransferred",
      "type": "event"
    },
    {
      "inputs": [],
      "name": "_implementation",
      "outputs": [
        {
          "internalType": "address",
          "name": "",
          "type": "address"
        }
      ],
      "stateMutability": "view",
      "type": "function"
    },
    {
      "inputs": [],
      "name": "_owner",
      "outputs": [
        {
          "internalType": "address",
          "name": "",
          "type": "address"
        }
      ],
      "stateMutability": "view",
      "type": "function"
    },
    {
      "inputs": [
        {
          "internalType": "address",
          "name": "",
          "type": "address"
        }
      ],
      "name": "collections",
      "outputs": [
        {
          "internalType": "string",
          "name": "name",
          "type": "string"
        },
        {
          "internalType": "string",
          "name": "symbol",
          "type": "string"
        },
        {
          "internalType": "address",
          "name": "collection",
          "type": "address"
        },
        {
          "internalType": "uint256",
          "name": "salt",
          "type": "uint256"
        }
      ],
      "stateMutability": "view",
      "type": "function"
    },
    {
      "inputs": [
        {
          "internalType": "string",
          "name": "name",
          "type": "string"
        },
        {
          "internalType": "string",
          "name": "symbol",
          "type": "string"
        },
        {
          "internalType": "address",
          "name": "admin",
          "type": "address"
        },
        {
          "internalType": "uint256",
          "name": "salt",
          "type": "uint256"
        },
        {
          "internalType": "address",
          "name": "transferProxy",
          "type": "address"
        },
        {
          "internalType": "string",
          "name": "baseURI",
          "type": "string"
        }
      ],
      "name": "create",
      "outputs": [
        {
          "internalType": "address",
          "name": "",
          "type": "address"
        }
      ],
      "stateMutability": "nonpayable",
      "type": "function"
    },
    {
      "inputs": [],
      "name": "renounceOwnership",
      "outputs": [],
      "stateMutability": "nonpayable",
      "type": "function"
    },
    {
      "inputs": [
        {
          "internalType": "uint256",
          "name": "",
          "type": "uint256"
        }
      ],
      "name": "salts",
      "outputs": [
        {
          "internalType": "address",
          "name": "",
          "type": "address"
        }
      ],
      "stateMutability": "view",
      "type": "function"
    },
    {
      "inputs": [
        {
          "internalType": "address",
          "name": "_new",
          "type": "address"
        }
      ],
      "name": "setImplementation",
      "outputs": [],
      "stateMutability": "nonpayable",
      "type": "function"
    },
    {
      "inputs": [
        {
          "internalType": "address",
          "name": "newOwner",
          "type": "address"
        }
      ],
      "name": "transferOwnership",
      "outputs": [],
      "stateMutability": "nonpayable",
      "type": "function"
    }
  ],
  "bytecode": "0x608060405234801561001057600080fd5b506040516125ab3803806125ab8339818101604052602081101561003357600080fd5b50516001600160a01b03811661007a5760405162461bcd60e51b81526004018080602001828103825260288152602001806125836028913960400191505060405180910390fd5b60028054336001600160a01b031991821617909155600380549091166001600160a01b03929092169190911790556124cc806100b76000396000f3fe60806040523480156200001157600080fd5b5060043610620000945760003560e01c8063ac1d45c51162000063578063ac1d45c514620003cf578063b2bdfa7b14620003ef578063d784d42614620003f9578063f2fde38b14620004225762000094565b806343add2e6146200009957806359679b0f14620001bd5780635e749ed914620001e3578063715018a614620003c3575b600080fd5b620000c260048036036020811015620000b157600080fd5b50356001600160a01b03166200044b565b604051808060200180602001856001600160a01b03168152602001848152602001838103835287818151815260200191508051906020019080838360005b838110156200011a57818101518382015260200162000100565b50505050905090810190601f168015620001485780820380516001836020036101000a031916815260200191505b50838103825286518152865160209182019188019080838360005b838110156200017d57818101518382015260200162000163565b50505050905090810190601f168015620001ab5780820380516001836020036101000a031916815260200191505b50965050505050505060405180910390f35b620001c7620005a3565b604080516001600160a01b039092168252519081900360200190f35b620001c7600480360360c0811015620001fb57600080fd5b8101906020810181356401000000008111156200021757600080fd5b8201836020820111156200022a57600080fd5b803590602001918460018302840111640100000000831117156200024d57600080fd5b91908080601f0160208091040260200160405190810160405280939291908181526020018383808284376000920191909152509295949360208101935035915050640100000000811115620002a157600080fd5b820183602082011115620002b457600080fd5b80359060200191846001830284011164010000000083111715620002d757600080fd5b91908080601f01602080910402602001604051908101604052809392919081815260200183838082843760009201919091525092956001600160a01b038535811696602087013596604081013590921695509193509091506080810190606001356401000000008111156200034b57600080fd5b8201836020820111156200035e57600080fd5b803590602001918460018302840111640100000000831117156200038157600080fd5b91908080601f016020809104026020016040519081016040528093929190818152602001838380828437600092019190915250929550620005b2945050505050565b620003cd62000c8d565b005b620001c760048036036020811015620003e757600080fd5b503562000d22565b620001c762000d3d565b620003cd600480360360208110156200041157600080fd5b50356001600160a01b031662000d4c565b620003cd600480360360208110156200043a57600080fd5b50356001600160a01b031662000e17565b60016020818152600092835260409283902080548451600294821615610100026000190190911693909304601f8101839004830284018301909452838352928391830182828015620004e15780601f10620004b557610100808354040283529160200191620004e1565b820191906000526020600020905b815481529060010190602001808311620004c357829003601f168201915b505050505090806001018054600181600116156101000203166002900480601f016020809104026020016040519081016040528092919081815260200182805460018160011615610100020316600290048015620005835780601f10620005575761010080835404028352916020019162000583565b820191906000526020600020905b8154815290600101906020018083116200056557829003601f168201915b50505050600283015460039093015491926001600160a01b031691905084565b6003546001600160a01b031681565b6003546000906001600160a01b03168062000614576040805162461bcd60e51b815260206004820152601f60248201527f436f6c6c656374696f6e466163746f72793a207a65726f206164647265737300604482015290519081900360640190fd5b856001600160a01b03811662000671576040805162461bcd60e51b815260206004820152601f60248201527f436f6c6c656374696f6e466163746f72793a207a65726f206164647265737300604482015290519081900360640190fd5b8560008111620006c8576040805162461bcd60e51b815260206004820152601d60248201527f436f6c6c656374696f6e466163746f72793a207a65726f2076616c7565000000604482015290519081900360640190fd5b6000878152602081905260409020546001600160a01b0316156200071e5760405162461bcd60e51b8152600401808060200182810382526024815260200180620024736024913960400191505060405180910390fd5b60008a511162000775576040805162461bcd60e51b815260206004820152601c60248201527f466163746f7279436f6c6c656374696f6e3a207a65726f206e616d6500000000604482015290519081900360640190fd5b6000895111620007cc576040805162461bcd60e51b815260206004820152601e60248201527f466163746f7279436f6c6c656374696f6e3a207a65726f2073796d626f6c0000604482015290519081900360640190fd5b60008a8a604051620007de9062000f05565b604080825283519082015282518190602080830191606084019187019080838360005b838110156200081b57818101518382015260200162000801565b50505050905090810190601f168015620008495780820380516001836020036101000a031916815260200191505b50838103825284518152845160209182019186019080838360005b838110156200087e57818101518382015260200162000864565b50505050905090810190601f168015620008ac5780820380516001836020036101000a031916815260200191505b50945050505050604051809103906000f080158015620008d0573d6000803e3d6000fd5b5090506001600160a01b0381166200091a5760405162461bcd60e51b8152600401808060200182810382526022815260200180620023f76022913960400191505060405180910390fd5b806000808a815260200190815260200160002060006101000a8154816001600160a01b0302191690836001600160a01b03160217905550806001600160a01b0316632d87bb8f600360009054906101000a90046001600160a01b0316888c8b6040518563ffffffff1660e01b815260040180856001600160a01b0316815260200180602001846001600160a01b03168152602001836001600160a01b03168152602001828103825285818151815260200191508051906020019080838360005b83811015620009f4578181015183820152602001620009da565b50505050905090810190601f16801562000a225780820380516001836020036101000a031916815260200191505b5095505050505050600060405180830381600087803b15801562000a4557600080fd5b505af115801562000a5a573d6000803e3d6000fd5b50505050806001600160a01b031663f2fde38b8a6040518263ffffffff1660e01b815260040180826001600160a01b03168152602001915050600060405180830381600087803b15801562000aae57600080fd5b505af115801562000ac3573d6000803e3d6000fd5b5050604080516080810182528e815260208082018f90526001600160a01b038616828401819052606083018e9052600090815260018252929092208151805192955090935062000b1892849291019062000f13565b50602082810151805162000b33926001850192019062000f13565b5060408201518160020160006101000a8154816001600160a01b0302191690836001600160a01b031602179055506060820151816003015590505087816001600160a01b03167f47e387d62c72ee93708422cf45376311141c0954232411e5c4a6ff45cf49b0f98d8d604051808060200180602001838103835285818151815260200191508051906020019080838360005b8381101562000bdf57818101518382015260200162000bc5565b50505050905090810190601f16801562000c0d5780820380516001836020036101000a031916815260200191505b50838103825284518152845160209182019186019080838360005b8381101562000c4257818101518382015260200162000c28565b50505050905090810190601f16801562000c705780820380516001836020036101000a031916815260200191505b5094505050505060405180910390a39a9950505050505050505050565b6002546001600160a01b0316331462000cd85760405162461bcd60e51b815260040180806020018281038252602a81526020018062002449602a913960400191505060405180910390fd5b6002546040516000916001600160a01b0316907f8be0079c531659141344cd1fd0a4f28419497f9722a3daafe3b4186f6b6457e0908390a3600280546001600160a01b0319169055565b6000602081905290815260409020546001600160a01b031681565b6002546001600160a01b031681565b6002546001600160a01b0316331462000d975760405162461bcd60e51b815260040180806020018281038252602a81526020018062002449602a913960400191505060405180910390fd5b806001600160a01b03811662000df4576040805162461bcd60e51b815260206004820152601f60248201527f436f6c6c656374696f6e466163746f72793a207a65726f206164647265737300604482015290519081900360640190fd5b50600380546001600160a01b0319166001600160a01b0392909216919091179055565b6002546001600160a01b0316331462000e625760405162461bcd60e51b815260040180806020018281038252602a81526020018062002449602a913960400191505060405180910390fd5b6001600160a01b03811662000ea95760405162461bcd60e51b8152600401808060200182810382526030815260200180620024196030913960400191505060405180910390fd5b6002546040516001600160a01b038084169216907f8be0079c531659141344cd1fd0a4f28419497f9722a3daafe3b4186f6b6457e090600090a3600280546001600160a01b0319166001600160a01b0392909216919091179055565b6114378062000fc083390190565b828054600181600116156101000203166002900490600052602060002090601f01602090048101928262000f4b576000855562000f96565b82601f1062000f6657805160ff191683800117855562000f96565b8280016001018555821562000f96579182015b8281111562000f9657825182559160200191906001019062000f79565b5062000fa492915062000fa8565b5090565b5b8082111562000fa4576000815560010162000fa956fe60806040523480156200001157600080fd5b506040516200143738038062001437833981810160405260408110156200003757600080fd5b81019080805160405193929190846401000000008211156200005857600080fd5b9083019060208201858111156200006e57600080fd5b82516401000000008111828201881017156200008957600080fd5b82525081516020918201929091019080838360005b83811015620000b85781810151838201526020016200009e565b50505050905090810190601f168015620000e65780820380516001836020036101000a031916815260200191505b50604052602001805160405193929190846401000000008211156200010a57600080fd5b9083019060208201858111156200012057600080fd5b82516401000000008111828201881017156200013b57600080fd5b82525081516020918201929091019080838360005b838110156200016a57818101518382015260200162000150565b50505050905090810190601f168015620001985780820380516001836020036101000a031916815260200191505b5060405250620001b391506301ffc9a760e01b90506200027e565b6000620001bf62000303565b600180546001600160a01b0319166001600160a01b0383161790558351909150620001f290600290602086019062000307565b5081516200020890600390602085019062000307565b506200021b6380ac58cd60e01b6200027e565b6200022d635b5e139f60e01b6200027e565b6200023f63780e9d6360e01b6200027e565b6040516001600160a01b038216906000907f8be0079c531659141344cd1fd0a4f28419497f9722a3daafe3b4186f6b6457e0908290a3505050620003b3565b6001600160e01b03198082161415620002de576040805162461bcd60e51b815260206004820152601c60248201527f4552433136353a20696e76616c696420696e7465726661636520696400000000604482015290519081900360640190fd5b6001600160e01b0319166000908152602081905260409020805460ff19166001179055565b3390565b828054600181600116156101000203166002900490600052602060002090601f0160209004810192826200033f57600085556200038a565b82601f106200035a57805160ff19168380011785556200038a565b828001600101855582156200038a579182015b828111156200038a5782518255916020019190600101906200036d565b50620003989291506200039c565b5090565b5b808211156200039857600081556001016200039d565b61107480620003c36000396000f3fe60806040526004361061016a5760003560e01c806394a509dd116100d1578063b09f12661161008a578063dece685411610064578063dece685414610604578063edc3bc3f14610619578063f2fde38b14610654578063f663171814610687576101b3565b8063b09f1266146105c5578063b2bdfa7b146105da578063d28d8852146105ef576101b3565b806394a509dd146104f3578063a2e9b43914610508578063a726366514610532578063a7cc01361461055c578063aa5965ae14610586578063b01ac591146105b0576101b3565b806363a8fd891161012357806363a8fd891461042c578063715018a614610441578063743976a014610456578063796db3121461046b5780637cb00d251461049557806388290adc146104c1576101b3565b806301ffc9a7146101bd5780630bb78ec1146102055780632d87bb8f146102a45780633659cfe61461037d5780634f3c5f06146103b05780635c60da1b146103fb576101b3565b366101b3576040805162461bcd60e51b815260206004820152601460248201527331b0b73737ba103932b1b2b4bb329022ba3432b960611b604482015290519081900360640190fd5b6101bb6106ba565b005b3480156101c957600080fd5b506101f1600480360360208110156101e057600080fd5b50356001600160e01b031916610740565b604080519115158252519081900360200190f35b34801561021157600080fd5b5061022f6004803603602081101561022857600080fd5b503561075f565b6040805160208082528351818301528351919283929083019185019080838360005b83811015610269578181015183820152602001610251565b50505050905090810190601f1680156102965780820380516001836020036101000a031916815260200191505b509250505060405180910390f35b3480156102b057600080fd5b506101bb600480360360808110156102c757600080fd5b6001600160a01b0382351691908101906040810160208201356401000000008111156102f257600080fd5b82018360208201111561030457600080fd5b8035906020019184600183028401116401000000008311171561032657600080fd5b91908080601f016020809104026020016040519081016040528093929190818152602001838380828437600092019190915250929550506001600160a01b0383358116945060209093013590921691506107fa9050565b34801561038957600080fd5b506101bb600480360360208110156103a057600080fd5b50356001600160a01b03166108bd565b3480156103bc57600080fd5b506103e9600480360360408110156103d357600080fd5b506001600160a01b038135169060200135610a12565b60408051918252519081900360200190f35b34801561040757600080fd5b50610410610a43565b604080516001600160a01b039092168252519081900360200190f35b34801561043857600080fd5b506101f1610a52565b34801561044d57600080fd5b506101bb610a5b565b34801561046257600080fd5b5061022f610afd565b34801561047757600080fd5b506104106004803603602081101561048e57600080fd5b5035610b58565b3480156104a157600080fd5b506101bb600480360360208110156104b857600080fd5b50351515610b73565b3480156104cd57600080fd5b506104d6610bde565b604080516001600160e01b03199092168252519081900360200190f35b3480156104ff57600080fd5b506104d6610be9565b34801561051457600080fd5b506103e96004803603602081101561052b57600080fd5b5035610bf4565b34801561053e57600080fd5b506103e96004803603602081101561055557600080fd5b5035610c06565b34801561056857600080fd5b506104106004803603602081101561057f57600080fd5b5035610c18565b34801561059257600080fd5b506103e9600480360360208110156105a957600080fd5b5035610c33565b3480156105bc57600080fd5b506104d6610c54565b3480156105d157600080fd5b5061022f610c5f565b3480156105e657600080fd5b50610410610cba565b3480156105fb57600080fd5b5061022f610cc9565b34801561061057600080fd5b506104d6610d21565b34801561062557600080fd5b506101f16004803603604081101561063c57600080fd5b506001600160a01b0381358116916020013516610d2c565b34801561066057600080fd5b506101bb6004803603602081101561067757600080fd5b50356001600160a01b0316610d4c565b34801561069357600080fd5b506103e9600480360360208110156106aa57600080fd5b50356001600160a01b0316610e45565b60006106c4610e57565b90506001600160a01b038116158015906106e15750600e5460ff16155b61071c5760405162461bcd60e51b8152600401808060200182810382526023815260200180610fb66023913960400191505060405180910390fd5b3660008037600080366000845af43d6000803e80801561073b573d6000f35b3d6000fd5b6001600160e01b03191660009081526020819052604090205460ff1690565b60046020908152600091825260409182902080548351601f6002600019610100600186161502019093169290920491820184900484028101840190945280845290918301828280156107f25780601f106107c7576101008083540402835291602001916107f2565b820191906000526020600020905b8154815290600101906020018083116107d557829003601f168201915b505050505081565b610802610e7c565b6001546001600160a01b03908116911614610852576040805162461bcd60e51b81526020600482018190526024820152600080516020610fd9833981519152604482015290519081900360640190fd5b82511561086e57825161086c906005906020860190610eee565b505b6001600160a01b038116156108ae576001600160a01b038083166000908152600960209081526040808320938516835292905220805460ff191660011790555b6108b7846108bd565b50505050565b6108c5610e7c565b6001546001600160a01b03908116911614610915576040805162461bcd60e51b81526020600482018190526024820152600080516020610fd9833981519152604482015290519081900360640190fd5b6001600160a01b038116610970576040805162461bcd60e51b815260206004820152601a60248201527f45524337323150726f78793a20696e707574206973207a65726f000000000000604482015290519081900360640190fd5b806001600160a01b0316610982610e57565b6001600160a01b031614156109d2576040805162461bcd60e51b815260206004820152601160248201527045524337323150726f78793a2073616d6560781b604482015290519081900360640190fd5b6109db81610e80565b6040516001600160a01b038216907fbc7cd75a20ee27fd9adebab32041f755214dbc6bffa90cc0225b39da2e5c2d3b90600090a250565b600a6020528160005260406000208181548110610a2e57600080fd5b90600052602060002001600091509150505481565b6000610a4d610e57565b905090565b600e5460ff1681565b610a63610e7c565b6001546001600160a01b03908116911614610ab3576040805162461bcd60e51b81526020600482018190526024820152600080516020610fd9833981519152604482015290519081900360640190fd5b6001546040516000916001600160a01b0316907f8be0079c531659141344cd1fd0a4f28419497f9722a3daafe3b4186f6b6457e0908390a3600180546001600160a01b0319169055565b6005805460408051602060026001851615610100026000190190941693909304601f810184900484028201840190925281815292918301828280156107f25780601f106107c7576101008083540402835291602001916107f2565b6006602052600090815260409020546001600160a01b031681565b610b7b610e7c565b6001546001600160a01b03908116911614610bcb576040805162461bcd60e51b81526020600482018190526024820152600080516020610fd9833981519152604482015290519081900360640190fd5b600e805460ff1916911515919091179055565b630a85bd0160e11b81565b635b5e139f60e01b81565b600b6020526000908152604090205481565b600d6020526000908152604090205481565b6007602052600090815260409020546001600160a01b031681565b600c8181548110610c4357600080fd5b600091825260209091200154905081565b63780e9d6360e01b81565b6003805460408051602060026001851615610100026000190190941693909304601f810184900484028201840190925281815292918301828280156107f25780601f106107c7576101008083540402835291602001916107f2565b6001546001600160a01b031681565b6002805460408051602060018416156101000260001901909316849004601f810184900484028201840190925281815292918301828280156107f25780601f106107c7576101008083540402835291602001916107f2565b6380ac58cd60e01b81565b600960209081526000928352604080842090915290825290205460ff1681565b610d54610e7c565b6001546001600160a01b03908116911614610da4576040805162461bcd60e51b81526020600482018190526024820152600080516020610fd9833981519152604482015290519081900360640190fd5b6001600160a01b038116610de95760405162461bcd60e51b8152600401808060200182810382526026815260200180610f906026913960400191505060405180910390fd5b6001546040516001600160a01b038084169216907f8be0079c531659141344cd1fd0a4f28419497f9722a3daafe3b4186f6b6457e090600090a3600180546001600160a01b0319166001600160a01b0392909216919091179055565b60086020526000908152604090205481565b7f360894a13ba1a3210667c828492db98dca3e2076cc3735a920a3ca505d382bbc5490565b3390565b610e8981610ee8565b610ec45760405162461bcd60e51b8152600401808060200182810382526046815260200180610ff96046913960600191505060405180910390fd5b7f360894a13ba1a3210667c828492db98dca3e2076cc3735a920a3ca505d382bbc55565b3b151590565b828054600181600116156101000203166002900490600052602060002090601f016020900481019282610f245760008555610f6a565b82601f10610f3d57805160ff1916838001178555610f6a565b82800160010185558215610f6a579182015b82811115610f6a578251825591602001919060010190610f4f565b50610f76929150610f7a565b5090565b5b80821115610f765760008155600101610f7b56fe4f776e61626c653a206e6577206f776e657220697320746865207a65726f206164647265737345524337323150726f78793a20696d706c204f522070726f78792069732066616c73654f776e61626c653a2063616c6c6572206973206e6f7420746865206f776e657250726f7879426173653a2043616e6e6f742073657420612070726f787920696d706c656d656e746174696f6e20746f2061206e6f6e2d636f6e74726163742061646472657373a26469706673582212206f0f38887c4aa7141da19434644bc520879ce009e7f72e50126c11d0cd8547a664736f6c63430007060033466163746f7279436f6c6c656374696f6e3a207a65726f20636f6c6c656374696f6e466163746f7279436f6c6c656374696f6e3a206e6577206f776e657220697320746865207a65726f2061646472657373466163746f7279436f6c6c656374696f6e3a2063616c6c6572206973206e6f7420746865206f776e6572466163746f7279436f6c6c656374696f6e3a20616c726561647920757365642073616c74a26469706673582212204b03765baab74011a66388b2f6eb2bcb9d1a04d1fb45fef4d203e91722c2ae2064736f6c63430007060033466163746f7279436f6c6c656374696f6e3a205f636f6c6c656374696f6e4c6f676963207a65726f",
  "linkReferences": {},
  "deployedLinkReferences": {}
}