{
  "_format": "hh-sol-artifact-1",
  "contractName": "ERC721Public",
  "sourceName": "contracts/tokens/erc-721-collection/ERC721Public.sol",
  "abi": [
    {
      "inputs": [
        {
          "internalType": "string",
          "name": "name_",
          "type": "string"
        },
        {
          "internalType": "string",
          "name": "symbol_",
          "type": "string"
        }
      ],
      "stateMutability": "nonpayable",
      "type": "constructor"
    },
    {
      "anonymous": false,
      "inputs": [
        {
          "indexed": true,
          "internalType": "address",
          "name": "owner",
          "type": "address"
        },
        {
          "indexed": true,
          "internalType": "address",
          "name": "approved",
          "type": "address"
        },
        {
          "indexed": true,
          "internalType": "uint256",
          "name": "tokenId",
          "type": "uint256"
        }
      ],
      "name": "Approval",
      "type": "event"
    },
    {
      "anonymous": false,
      "inputs": [
        {
          "indexed": true,
          "internalType": "address",
          "name": "owner",
          "type": "address"
        },
        {
          "indexed": true,
          "internalType": "address",
          "name": "operator",
          "type": "address"
        },
        {
          "indexed": false,
          "internalType": "bool",
          "name": "approved",
          "type": "bool"
        }
      ],
      "name": "ApprovalForAll",
      "type": "event"
    },
    {
      "anonymous": false,
      "inputs": [
        {
          "indexed": true,
          "internalType": "address",
          "name": "from",
          "type": "address"
        },
        {
          "indexed": true,
          "internalType": "address",
          "name": "to",
          "type": "address"
        },
        {
          "indexed": true,
          "internalType": "uint256",
          "name": "tokenId",
          "type": "uint256"
        }
      ],
      "name": "Transfer",
      "type": "event"
    },
    {
      "inputs": [],
      "name": "_ERC721_RECEIVED",
      "outputs": [
        {
          "internalType": "bytes4",
          "name": "",
          "type": "bytes4"
        }
      ],
      "stateMutability": "view",
      "type": "function"
    },
    {
      "inputs": [],
      "name": "_INTERFACE_ID_ERC721",
      "outputs": [
        {
          "internalType": "bytes4",
          "name": "",
          "type": "bytes4"
        }
      ],
      "stateMutability": "view",
      "type": "function"
    },
    {
      "inputs": [],
      "name": "_INTERFACE_ID_ERC721_ENUMERABLE",
      "outputs": [
        {
          "internalType": "bytes4",
          "name": "",
          "type": "bytes4"
        }
      ],
      "stateMutability": "view",
      "type": "function"
    },
    {
      "inputs": [],
      "name": "_INTERFACE_ID_ERC721_METADATA",
      "outputs": [
        {
          "internalType": "bytes4",
          "name": "",
          "type": "bytes4"
        }
      ],
      "stateMutability": "view",
      "type": "function"
    },
    {
      "inputs": [
        {
          "internalType": "uint256",
          "name": "",
          "type": "uint256"
        }
      ],
      "name": "_allTokens",
      "outputs": [
        {
          "internalType": "uint256",
          "name": "",
          "type": "uint256"
        }
      ],
      "stateMutability": "view",
      "type": "function"
    },
    {
      "inputs": [
        {
          "internalType": "uint256",
          "name": "",
          "type": "uint256"
        }
      ],
      "name": "_allTokensIndex",
      "outputs": [
        {
          "internalType": "uint256",
          "name": "",
          "type": "uint256"
        }
      ],
      "stateMutability": "view",
      "type": "function"
    },
    {
      "inputs": [],
      "name": "_baseURI",
      "outputs": [
        {
          "internalType": "string",
          "name": "",
          "type": "string"
        }
      ],
      "stateMutability": "view",
      "type": "function"
    },
    {
      "inputs": [],
      "name": "_name",
      "outputs": [
        {
          "internalType": "string",
          "name": "",
          "type": "string"
        }
      ],
      "stateMutability": "view",
      "type": "function"
    },
    {
      "inputs": [
        {
          "internalType": "address",
          "name": "",
          "type": "address"
        },
        {
          "internalType": "address",
          "name": "",
          "type": "address"
        }
      ],
      "name": "_operatorApprovals",
      "outputs": [
        {
          "internalType": "bool",
          "name": "",
          "type": "bool"
        }
      ],
      "stateMutability": "view",
      "type": "function"
    },
    {
      "inputs": [
        {
          "internalType": "address",
          "name": "",
          "type": "address"
        },
        {
          "internalType": "uint256",
          "name": "",
          "type": "uint256"
        }
      ],
      "name": "_ownedTokens",
      "outputs": [
        {
          "internalType": "uint256",
          "name": "",
          "type": "uint256"
        }
      ],
      "stateMutability": "view",
      "type": "function"
    },
    {
      "inputs": [
        {
          "internalType": "address",
          "name": "",
          "type": "address"
        }
      ],
      "name": "_ownedTokensCount",
      "outputs": [
        {
          "internalType": "uint256",
          "name": "_value",
          "type": "uint256"
        }
      ],
      "stateMutability": "view",
      "type": "function"
    },
    {
      "inputs": [
        {
          "internalType": "uint256",
          "name": "",
          "type": "uint256"
        }
      ],
      "name": "_ownedTokensIndex",
      "outputs": [
        {
          "internalType": "uint256",
          "name": "",
          "type": "uint256"
        }
      ],
      "stateMutability": "view",
      "type": "function"
    },
    {
      "inputs": [],
      "name": "_owner",
      "outputs": [
        {
          "internalType": "address",
          "name": "",
          "type": "address"
        }
      ],
      "stateMutability": "view",
      "type": "function"
    },
    {
      "inputs": [],
      "name": "_symbol",
      "outputs": [
        {
          "internalType": "string",
          "name": "",
          "type": "string"
        }
      ],
      "stateMutability": "view",
      "type": "function"
    },
    {
      "inputs": [
        {
          "internalType": "uint256",
          "name": "",
          "type": "uint256"
        }
      ],
      "name": "_tokenApprovals",
      "outputs": [
        {
          "internalType": "address",
          "name": "",
          "type": "address"
        }
      ],
      "stateMutability": "view",
      "type": "function"
    },
    {
      "inputs": [
        {
          "internalType": "uint256",
          "name": "",
          "type": "uint256"
        }
      ],
      "name": "_tokenOwner",
      "outputs": [
        {
          "internalType": "address",
          "name": "",
          "type": "address"
        }
      ],
      "stateMutability": "view",
      "type": "function"
    },
    {
      "inputs": [
        {
          "internalType": "uint256",
          "name": "",
          "type": "uint256"
        }
      ],
      "name": "_tokenURIs",
      "outputs": [
        {
          "internalType": "string",
          "name": "",
          "type": "string"
        }
      ],
      "stateMutability": "view",
      "type": "function"
    },
    {
      "inputs": [
        {
          "internalType": "address",
          "name": "to",
          "type": "address"
        },
        {
          "internalType": "uint256",
          "name": "tokenId",
          "type": "uint256"
        }
      ],
      "name": "approve",
      "outputs": [],
      "stateMutability": "nonpayable",
      "type": "function"
    },
    {
      "inputs": [
        {
          "internalType": "address",
          "name": "owner_",
          "type": "address"
        }
      ],
      "name": "balanceOf",
      "outputs": [
        {
          "internalType": "uint256",
          "name": "",
          "type": "uint256"
        }
      ],
      "stateMutability": "view",
      "type": "function"
    },
    {
      "inputs": [],
      "name": "baseURI",
      "outputs": [
        {
          "internalType": "string",
          "name": "",
          "type": "string"
        }
      ],
      "stateMutability": "view",
      "type": "function"
    },
    {
      "inputs": [
        {
          "internalType": "address",
          "name": "owner_",
          "type": "address"
        },
        {
          "internalType": "uint256",
          "name": "tokenId",
          "type": "uint256"
        }
      ],
      "name": "burn",
      "outputs": [],
      "stateMutability": "nonpayable",
      "type": "function"
    },
    {
      "inputs": [
        {
          "internalType": "uint256",
          "name": "tokenId",
          "type": "uint256"
        }
      ],
      "name": "getApproved",
      "outputs": [
        {
          "internalType": "address",
          "name": "",
          "type": "address"
        }
      ],
      "stateMutability": "view",
      "type": "function"
    },
    {
      "inputs": [
        {
          "internalType": "address",
          "name": "owner",
          "type": "address"
        },
        {
          "internalType": "address",
          "name": "operator",
          "type": "address"
        }
      ],
      "name": "isApprovedForAll",
      "outputs": [
        {
          "internalType": "bool",
          "name": "",
          "type": "bool"
        }
      ],
      "stateMutability": "view",
      "type": "function"
    },
    {
      "inputs": [
        {
          "internalType": "string",
          "name": "tokenURI_",
          "type": "string"
        },
        {
          "internalType": "bytes",
          "name": "_data",
          "type": "bytes"
        }
      ],
      "name": "mint",
      "outputs": [],
      "stateMutability": "nonpayable",
      "type": "function"
    },
    {
      "inputs": [
        {
          "internalType": "string",
          "name": "tokenURI_",
          "type": "string"
        }
      ],
      "name": "mint",
      "outputs": [],
      "stateMutability": "nonpayable",
      "type": "function"
    },
    {
      "inputs": [],
      "name": "name",
      "outputs": [
        {
          "internalType": "string",
          "name": "",
          "type": "string"
        }
      ],
      "stateMutability": "view",
      "type": "function"
    },
    {
      "inputs": [
        {
          "internalType": "uint256",
          "name": "tokenId",
          "type": "uint256"
        }
      ],
      "name": "ownerOf",
      "outputs": [
        {
          "internalType": "address",
          "name": "",
          "type": "address"
        }
      ],
      "stateMutability": "view",
      "type": "function"
    },
    {
      "inputs": [],
      "name": "pauseProxy",
      "outputs": [
        {
          "internalType": "bool",
          "name": "",
          "type": "bool"
        }
      ],
      "stateMutability": "view",
      "type": "function"
    },
    {
      "inputs": [
        {
          "internalType": "address",
          "name": "from",
          "type": "address"
        },
        {
          "internalType": "address",
          "name": "to",
          "type": "address"
        },
        {
          "internalType": "uint256",
          "name": "tokenId",
          "type": "uint256"
        }
      ],
      "name": "safeTransferFrom",
      "outputs": [],
      "stateMutability": "nonpayable",
      "type": "function"
    },
    {
      "inputs": [
        {
          "internalType": "address",
          "name": "from",
          "type": "address"
        },
        {
          "internalType": "address",
          "name": "to",
          "type": "address"
        },
        {
          "internalType": "uint256",
          "name": "tokenId",
          "type": "uint256"
        },
        {
          "internalType": "bytes",
          "name": "_data",
          "type": "bytes"
        }
      ],
      "name": "safeTransferFrom",
      "outputs": [],
      "stateMutability": "nonpayable",
      "type": "function"
    },
    {
      "inputs": [
        {
          "internalType": "address",
          "name": "operator",
          "type": "address"
        },
        {
          "internalType": "bool",
          "name": "approved",
          "type": "bool"
        }
      ],
      "name": "setApprovalForAll",
      "outputs": [],
      "stateMutability": "nonpayable",
      "type": "function"
    },
    {
      "inputs": [
        {
          "internalType": "string",
          "name": "baseURI_",
          "type": "string"
        }
      ],
      "name": "setBaseURI",
      "outputs": [],
      "stateMutability": "nonpayable",
      "type": "function"
    },
    {
      "inputs": [
        {
          "internalType": "uint256",
          "name": "tokenId",
          "type": "uint256"
        },
        {
          "internalType": "string",
          "name": "_tokenURI",
          "type": "string"
        }
      ],
      "name": "setTokenURI",
      "outputs": [],
      "stateMutability": "nonpayable",
      "type": "function"
    },
    {
      "inputs": [
        {
          "internalType": "bytes4",
          "name": "interfaceId",
          "type": "bytes4"
        }
      ],
      "name": "supportsInterface",
      "outputs": [
        {
          "internalType": "bool",
          "name": "",
          "type": "bool"
        }
      ],
      "stateMutability": "view",
      "type": "function"
    },
    {
      "inputs": [],
      "name": "symbol",
      "outputs": [
        {
          "internalType": "string",
          "name": "",
          "type": "string"
        }
      ],
      "stateMutability": "view",
      "type": "function"
    },
    {
      "inputs": [
        {
          "internalType": "uint256",
          "name": "index",
          "type": "uint256"
        }
      ],
      "name": "tokenByIndex",
      "outputs": [
        {
          "internalType": "uint256",
          "name": "",
          "type": "uint256"
        }
      ],
      "stateMutability": "view",
      "type": "function"
    },
    {
      "inputs": [
        {
          "internalType": "address",
          "name": "owner_",
          "type": "address"
        },
        {
          "internalType": "uint256",
          "name": "index",
          "type": "uint256"
        }
      ],
      "name": "tokenOfOwnerByIndex",
      "outputs": [
        {
          "internalType": "uint256",
          "name": "",
          "type": "uint256"
        }
      ],
      "stateMutability": "view",
      "type": "function"
    },
    {
      "inputs": [
        {
          "internalType": "uint256",
          "name": "tokenId",
          "type": "uint256"
        }
      ],
      "name": "tokenURI",
      "outputs": [
        {
          "internalType": "string",
          "name": "",
          "type": "string"
        }
      ],
      "stateMutability": "view",
      "type": "function"
    },
    {
      "inputs": [
        {
          "internalType": "address",
          "name": "owner_",
          "type": "address"
        }
      ],
      "name": "tokensOfOwner",
      "outputs": [
        {
          "internalType": "uint256[]",
          "name": "",
          "type": "uint256[]"
        }
      ],
      "stateMutability": "view",
      "type": "function"
    },
    {
      "inputs": [],
      "name": "totalSupply",
      "outputs": [
        {
          "internalType": "uint256",
          "name": "",
          "type": "uint256"
        }
      ],
      "stateMutability": "view",
      "type": "function"
    },
    {
      "inputs": [
        {
          "internalType": "address",
          "name": "from",
          "type": "address"
        },
        {
          "internalType": "address",
          "name": "to",
          "type": "address"
        },
        {
          "internalType": "uint256",
          "name": "tokenId",
          "type": "uint256"
        }
      ],
      "name": "transferFrom",
      "outputs": [],
      "stateMutability": "nonpayable",
      "type": "function"
    }
  ],
  "bytecode": "0x60806040523480156200001157600080fd5b5060405162002c5538038062002c55833981810160405260408110156200003757600080fd5b81019080805160405193929190846401000000008211156200005857600080fd5b9083019060208201858111156200006e57600080fd5b82516401000000008111828201881017156200008957600080fd5b82525081516020918201929091019080838360005b83811015620000b85781810151838201526020016200009e565b50505050905090810190601f168015620000e65780820380516001836020036101000a031916815260200191505b50604052602001805160405193929190846401000000008211156200010a57600080fd5b9083019060208201858111156200012057600080fd5b82516401000000008111828201881017156200013b57600080fd5b82525081516020918201929091019080838360005b838110156200016a57818101518382015260200162000150565b50505050905090810190601f168015620001985780820380516001836020036101000a031916815260200191505b5060405250620001b391506301ffc9a760e01b90506200021d565b8151620001c8906002906020850190620002a2565b508051620001de906003906020840190620002a2565b50620001f16380ac58cd60e01b6200021d565b62000203635b5e139f60e01b6200021d565b6200021563780e9d6360e01b6200021d565b50506200034e565b6001600160e01b031980821614156200027d576040805162461bcd60e51b815260206004820152601c60248201527f4552433136353a20696e76616c696420696e7465726661636520696400000000604482015290519081900360640190fd5b6001600160e01b0319166000908152602081905260409020805460ff19166001179055565b828054600181600116156101000203166002900490600052602060002090601f016020900481019282620002da576000855562000325565b82601f10620002f557805160ff191683800117855562000325565b8280016001018555821562000325579182015b828111156200032557825182559160200191906001019062000308565b506200033392915062000337565b5090565b5b8082111562000333576000815560010162000338565b6128f7806200035e6000396000f3fe608060405234801561001057600080fd5b50600436106102535760003560e01c80638462151c11610146578063b01ac591116100c3578063d28d885211610087578063d28d8852146109bc578063d85d3d27146109c4578063dece685414610a32578063e985e9c514610a3a578063edc3bc3f14610a68578063f663171814610a9657610253565b8063b01ac591146108c3578063b09f1266146108cb578063b2bdfa7b146108d3578063b88d4fde146108db578063c87b56dd1461099f57610253565b8063a22cb4651161010a578063a22cb46514610821578063a2e9b4391461084f578063a72636651461086c578063a7cc013614610889578063aa5965ae146108a657610253565b80638462151c1461074a57806388290adc146107c057806394a509dd146107e557806395d89b41146107ed5780639dc29fac146107f557610253565b80634737576e116101d457806363a8fd891161019857806363a8fd89146106ef5780636c0360eb146106f757806370a08231146106ff578063743976a014610725578063796db3121461072d57610253565b80634737576e146104f15780634f3c5f06146105e55780634f6ccce71461061157806355f804b31461062e5780636352211e146106d257610253565b8063162094c41161021b578063162094c41461039457806318160ddd1461043f57806323b872dd146104595780632f745c591461048f57806342842e0e146104bb57610253565b806301ffc9a71461025857806306fdde0314610293578063081812fc14610310578063095ea7b3146103495780630bb78ec114610377575b600080fd5b61027f6004803603602081101561026e57600080fd5b50356001600160e01b031916610abc565b604080519115158252519081900360200190f35b61029b610adf565b6040805160208082528351818301528351919283929083019185019080838360005b838110156102d55781810151838201526020016102bd565b50505050905090810190601f1680156103025780820380516001836020036101000a031916815260200191505b509250505060405180910390f35b61032d6004803603602081101561032657600080fd5b5035610b72565b604080516001600160a01b039092168252519081900360200190f35b6103756004803603604081101561035f57600080fd5b506001600160a01b038135169060200135610bd4565b005b61029b6004803603602081101561038d57600080fd5b5035610caf565b610375600480360360408110156103aa57600080fd5b81359190810190604081016020820135600160201b8111156103cb57600080fd5b8201836020820111156103dd57600080fd5b803590602001918460018302840111600160201b831117156103fe57600080fd5b91908080601f016020809104026020016040519081016040528093929190818152602001838380828437600092019190915250929550610d4a945050505050565b610447610dc2565b60408051918252519081900360200190f35b6103756004803603606081101561046f57600080fd5b506001600160a01b03813581169160208101359091169060400135610dc8565b610447600480360360408110156104a557600080fd5b506001600160a01b038135169060200135610e1f565b610375600480360360608110156104d157600080fd5b506001600160a01b03813581169160208101359091169060400135610e9e565b6103756004803603604081101561050757600080fd5b810190602081018135600160201b81111561052157600080fd5b82018360208201111561053357600080fd5b803590602001918460018302840111600160201b8311171561055457600080fd5b919390929091602081019035600160201b81111561057157600080fd5b82018360208201111561058357600080fd5b803590602001918460018302840111600160201b831117156105a457600080fd5b91908080601f016020809104026020016040519081016040528093929190818152602001838380828437600092019190915250929550610eb9945050505050565b610447600480360360408110156105fb57600080fd5b506001600160a01b038135169060200135610ef0565b6104476004803603602081101561062757600080fd5b5035610f21565b6103756004803603602081101561064457600080fd5b810190602081018135600160201b81111561065e57600080fd5b82018360208201111561067057600080fd5b803590602001918460018302840111600160201b8311171561069157600080fd5b91908080601f016020809104026020016040519081016040528093929190818152602001838380828437600092019190915250929550610f87945050505050565b61032d600480360360208110156106e857600080fd5b5035610ffd565b61027f611057565b61029b611060565b6104476004803603602081101561071557600080fd5b50356001600160a01b03166110c1565b61029b611129565b61032d6004803603602081101561074357600080fd5b5035611184565b6107706004803603602081101561076057600080fd5b50356001600160a01b031661119f565b60408051602080825283518183015283519192839290830191858101910280838360005b838110156107ac578181015183820152602001610794565b505050509050019250505060405180910390f35b6107c861120b565b604080516001600160e01b03199092168252519081900360200190f35b6107c8611216565b61029b611221565b6103756004803603604081101561080b57600080fd5b506001600160a01b038135169060200135611282565b6103756004803603604081101561083757600080fd5b506001600160a01b03813516906020013515156112ae565b6104476004803603602081101561086557600080fd5b50356113b3565b6104476004803603602081101561088257600080fd5b50356113c5565b61032d6004803603602081101561089f57600080fd5b50356113d7565b610447600480360360208110156108bc57600080fd5b50356113f2565b6107c8611413565b61029b61141e565b61032d611479565b610375600480360360808110156108f157600080fd5b6001600160a01b03823581169260208101359091169160408201359190810190608081016060820135600160201b81111561092b57600080fd5b82018360208201111561093d57600080fd5b803590602001918460018302840111600160201b8311171561095e57600080fd5b91908080601f016020809104026020016040519081016040528093929190818152602001838380828437600092019190915250929550611488945050505050565b61029b600480360360208110156109b557600080fd5b50356114e6565b61029b611767565b610375600480360360208110156109da57600080fd5b810190602081018135600160201b8111156109f457600080fd5b820183602082011115610a0657600080fd5b803590602001918460018302840111600160201b83111715610a2757600080fd5b5090925090506117bf565b6107c86117ee565b61027f60048036036040811015610a5057600080fd5b506001600160a01b03813581169160200135166117f9565b61027f60048036036040811015610a7e57600080fd5b506001600160a01b0381358116916020013516611827565b61044760048036036020811015610aac57600080fd5b50356001600160a01b0316611847565b6001600160e01b0319811660009081526020819052604090205460ff165b919050565b60028054604080516020601f6000196101006001871615020190941685900493840181900481028201810190925282815260609390929091830182828015610b685780601f10610b3d57610100808354040283529160200191610b68565b820191906000526020600020905b815481529060010190602001808311610b4b57829003601f168201915b5050505050905090565b6000610b7d82611859565b610bb85760405162461bcd60e51b815260040180806020018281038252602c815260200180612773602c913960400191505060405180910390fd5b506000908152600760205260409020546001600160a01b031690565b6000610bdf82610ffd565b9050806001600160a01b0316836001600160a01b03161415610c325760405162461bcd60e51b81526004018080602001828103825260218152602001806127f76021913960400191505060405180910390fd5b806001600160a01b0316610c44611876565b6001600160a01b03161480610c655750610c6581610c60611876565b6117f9565b610ca05760405162461bcd60e51b81526004018080602001828103825260388152602001806127126038913960400191505060405180910390fd5b610caa838361187a565b505050565b60046020908152600091825260409182902080548351601f600260001961010060018616150201909316929092049182018490048402810184019094528084529091830182828015610d425780601f10610d1757610100808354040283529160200191610d42565b820191906000526020600020905b815481529060010190602001808311610d2557829003601f168201915b505050505081565b610d52611876565b6001546001600160a01b03908116911614610db4576040805162461bcd60e51b815260206004820152601f60248201527f4552433732313a2063616c6c6572206973206e6f7420746865206f776e657200604482015290519081900360640190fd5b610dbe8282610d4a565b5050565b600c5490565b610dd9610dd3611876565b826118e8565b610e145760405162461bcd60e51b81526004018080602001828103825260318152602001806128416031913960400191505060405180910390fd5b610caa83838361198c565b6000610e2a836110c1565b8210610e675760405162461bcd60e51b815260040180806020018281038252602a8152602001806126e8602a913960400191505060405180910390fd5b6001600160a01b0383166000908152600a60205260409020805483908110610e8b57fe5b9060005260206000200154905092915050565b610caa83838360405180602001604052806000815250611488565b6000610ec3610dc2565b9050610ed0338284611adb565b6000818152600460205260409020610ee9908585612522565b5050505050565b600a6020528160005260406000208181548110610f0c57600080fd5b90600052602060002001600091509150505481565b6000610f2b610dc2565b8210610f685760405162461bcd60e51b815260040180806020018281038252602b815260200180612872602b913960400191505060405180910390fd5b600c8281548110610f7557fe5b90600052602060002001549050919050565b610f8f611876565b6001546001600160a01b03908116911614610ff1576040805162461bcd60e51b815260206004820152601f60248201527f4552433732313a2063616c6c6572206973206e6f7420746865206f776e657200604482015290519081900360640190fd5b610ffa81611b40565b50565b6000818152600660205260408120546001600160a01b0316806110515760405162461bcd60e51b815260040180806020018281038252602981526020018061274a6029913960400191505060405180910390fd5b92915050565b600e5460ff1681565b60058054604080516020601f6002600019610100600188161502019095169490940493840181900481028201810190925282815260609390929091830182828015610b685780601f10610b3d57610100808354040283529160200191610b68565b60006001600160a01b0382166111085760405162461bcd60e51b81526004018080602001828103825260298152602001806128186029913960400191505060405180910390fd5b6001600160a01b038216600090815260086020526040902061105190611b53565b6005805460408051602060026001851615610100026000190190941693909304601f81018490048402820184019092528181529291830182828015610d425780601f10610d1757610100808354040283529160200191610d42565b6006602052600090815260409020546001600160a01b031681565b6001600160a01b0381166000908152600a60209081526040918290208054835181840281018401909452808452606093928301828280156111ff57602002820191906000526020600020905b8154815260200190600101908083116111eb575b50505050509050919050565b630a85bd0160e11b81565b635b5e139f60e01b81565b60038054604080516020601f6002600019610100600188161502019095169490940493840181900481028201810190925282815260609390929091830182828015610b685780601f10610b3d57610100808354040283529160200191610b68565b61128c8282611b57565b6112968282611c3a565b6000818152600b6020526040812055610dbe81611d36565b6112b6611876565b6001600160a01b0316826001600160a01b0316141561131c576040805162461bcd60e51b815260206004820152601960248201527f4552433732313a20617070726f766520746f2063616c6c657200000000000000604482015290519081900360640190fd5b8060096000611329611876565b6001600160a01b03908116825260208083019390935260409182016000908120918716808252919093529120805460ff19169215159290921790915561136d611876565b6001600160a01b03167f17307eab39ab6107e8899845ad3d59bd9653f200f220920489ca2b5937696c318360405180821515815260200191505060405180910390a35050565b600b6020526000908152604090205481565b600d6020526000908152604090205481565b6007602052600090815260409020546001600160a01b031681565b600c818154811061140257600080fd5b600091825260209091200154905081565b63780e9d6360e01b81565b6003805460408051602060026001851615610100026000190190941693909304601f81018490048402820184019092528181529291830182828015610d425780601f10610d1757610100808354040283529160200191610d42565b6001546001600160a01b031681565b611499611493611876565b836118e8565b6114d45760405162461bcd60e51b81526004018080602001828103825260318152602001806128416031913960400191505060405180910390fd5b6114e084848484611de4565b50505050565b60606114f182611859565b61152c5760405162461bcd60e51b815260040180806020018281038252602f8152602001806127c8602f913960400191505060405180910390fd5b60008281526004602090815260408083208054825160026001831615610100026000190190921691909104601f8101859004850282018501909352828152929091908301828280156115bf5780601f10611594576101008083540402835291602001916115bf565b820191906000526020600020905b8154815290600101906020018083116115a257829003601f168201915b5050505050905060006115d0611060565b90508051600014156115e457509050610ada565b8151156116a55780826040516020018083805190602001908083835b6020831061161f5780518252601f199092019160209182019101611600565b51815160209384036101000a600019018019909216911617905285519190930192850191508083835b602083106116675780518252601f199092019160209182019101611648565b6001836020036101000a0380198251168184511680821785525050505050509050019250505060405160208183030381529060405292505050610ada565b806116af85611e36565b6040516020018083805190602001908083835b602083106116e15780518252601f1990920191602091820191016116c2565b51815160209384036101000a600019018019909216911617905285519190930192850191508083835b602083106117295780518252601f19909201916020918201910161170a565b6001836020036101000a0380198251168184511680821785525050505050509050019250505060405160208183030381529060405292505050919050565b6002805460408051602060018416156101000260001901909316849004601f81018490048402820184019092528181529291830182828015610d425780601f10610d1757610100808354040283529160200191610d42565b60006117c9610dc2565b90506117d53382611f11565b60008181526004602052604090206114e0908484612522565b6380ac58cd60e01b81565b6001600160a01b03918216600090815260096020908152604080832093909416825291909152205460ff1690565b600960209081526000928352604080842090915290825290205460ff1681565b60086020526000908152604090205481565b6000908152600660205260409020546001600160a01b0316151590565b3390565b600081815260076020526040902080546001600160a01b0319166001600160a01b03841690811790915581906118af82610ffd565b6001600160a01b03167f8c5be1e5ebec7d5bd14f71427d1e84f3dd0314c0f7b2291e5b200ac8c7c3b92560405160405180910390a45050565b60006118f382611859565b61192e5760405162461bcd60e51b815260040180806020018281038252602c8152602001806126bc602c913960400191505060405180910390fd5b600061193983610ffd565b9050806001600160a01b0316846001600160a01b031614806119745750836001600160a01b031661196984610b72565b6001600160a01b0316145b80611984575061198481856117f9565b949350505050565b826001600160a01b031661199f82610ffd565b6001600160a01b0316146119e45760405162461bcd60e51b815260040180806020018281038252602981526020018061279f6029913960400191505060405180910390fd5b6001600160a01b038216611a295760405162461bcd60e51b81526004018080602001828103825260248152602001806126726024913960400191505060405180910390fd5b611a34838383610caa565b611a3d81611f2b565b6001600160a01b0383166000908152600860205260409020611a5e90611f66565b6001600160a01b0382166000908152600860205260409020611a7f90611f77565b60008181526006602052604080822080546001600160a01b0319166001600160a01b0386811691821790925591518493918716917fddf252ad1be2c89b69c2b068fc378daa952ba7f163c4a11628f55a4df523b3ef91a4505050565b611ae58383611f80565b611aef83836120bd565b611af8826120fb565b611b05600084848461213f565b610caa5760405162461bcd60e51b81526004018080602001828103825260328152602001806126406032913960400191505060405180910390fd5b8051610dbe9060059060208401906125ae565b5490565b816001600160a01b0316611b6a82610ffd565b6001600160a01b031614611baf5760405162461bcd60e51b815260040180806020018281038252602581526020018061289d6025913960400191505060405180910390fd5b611bbb82600083610caa565b611bc481611f2b565b6001600160a01b0382166000908152600860205260409020611be590611f66565b60008181526006602052604080822080546001600160a01b0319169055518291906001600160a01b038516907fddf252ad1be2c89b69c2b068fc378daa952ba7f163c4a11628f55a4df523b3ef908390a45050565b6001600160a01b0382166000908152600a6020526040812054611c5e9060016122a7565b6000838152600b6020526040902054909150808214611cf9576001600160a01b0384166000908152600a60205260408120805484908110611c9b57fe5b9060005260206000200154905080600a6000876001600160a01b03166001600160a01b031681526020019081526020016000208381548110611cd957fe5b6000918252602080832090910192909255918252600b9052604090208190555b6001600160a01b0384166000908152600a60205260409020805480611d1a57fe5b6001900381819060005260206000200160009055905550505050565b600c54600090611d479060016122a7565b6000838152600d6020526040812054600c8054939450909284908110611d6957fe5b9060005260206000200154905080600c8381548110611d8457fe5b6000918252602080832090910192909255828152600d90915260409020829055600c805480611daf57fe5b600190038181906000526020600020016000905590556000600d60008681526020019081526020016000208190555050505050565b611def84848461198c565b611dfb8484848461213f565b6114e05760405162461bcd60e51b81526004018080602001828103825260328152602001806126406032913960400191505060405180910390fd5b606081611e5b57506040805180820190915260018152600360fc1b6020820152610ada565b8160005b8115611e7357600101600a82049150611e5f565b60008167ffffffffffffffff81118015611e8c57600080fd5b506040519080825280601f01601f191660200182016040528015611eb7576020820181803683370190505b50859350905060001982015b8315611f0857600a840660300160f81b82828060019003935081518110611ee657fe5b60200101906001600160f81b031916908160001a905350600a84049350611ec3565b50949350505050565b610dbe828260405180602001604052806000815250611adb565b6000818152600760205260409020546001600160a01b031615610ffa57600090815260076020526040902080546001600160a01b0319169055565b8054611f739060016122a7565b9055565b80546001019055565b6001600160a01b038216611fdb576040805162461bcd60e51b815260206004820181905260248201527f4552433732313a206d696e7420746f20746865207a65726f2061646472657373604482015290519081900360640190fd5b611fe481611859565b15612036576040805162461bcd60e51b815260206004820152601c60248201527f4552433732313a20746f6b656e20616c7265616479206d696e74656400000000604482015290519081900360640190fd5b61204260008383610caa565b600081815260066020908152604080832080546001600160a01b0319166001600160a01b03871690811790915583526008909152902061208190611f77565b60405181906001600160a01b038416906000907fddf252ad1be2c89b69c2b068fc378daa952ba7f163c4a11628f55a4df523b3ef908290a45050565b6001600160a01b039091166000908152600a602081815260408084208054868652600b84529185208290559282526001810183559183529091200155565b600c80546000838152600d60205260408120829055600182018355919091527fdf6966c971051c3d54ec59162606531493a51404a002842f56009d7e5cf4a8c70155565b6000612153846001600160a01b0316612304565b61215f57506001611984565b600061226d630a85bd0160e11b612174611876565b88878760405160240180856001600160a01b03168152602001846001600160a01b0316815260200183815260200180602001828103825283818151815260200191508051906020019080838360005b838110156121db5781810151838201526020016121c3565b50505050905090810190601f1680156122085780820380516001836020036101000a031916815260200191505b5095505050505050604051602081830303815290604052906001600160e01b0319166020820180516001600160e01b038381831617835250505050604051806060016040528060328152602001612640603291396001600160a01b038816919061230a565b9050600081806020019051602081101561228657600080fd5b50516001600160e01b031916630a85bd0160e11b1492505050949350505050565b6000828211156122fe576040805162461bcd60e51b815260206004820152601e60248201527f536166654d6174683a207375627472616374696f6e206f766572666c6f770000604482015290519081900360640190fd5b50900390565b3b151590565b60606123198484600085612323565b90505b9392505050565b6060824710156123645760405162461bcd60e51b81526004018080602001828103825260268152602001806126966026913960400191505060405180910390fd5b61236d85612304565b6123be576040805162461bcd60e51b815260206004820152601d60248201527f416464726573733a2063616c6c20746f206e6f6e2d636f6e7472616374000000604482015290519081900360640190fd5b600080866001600160a01b031685876040518082805190602001908083835b602083106123fc5780518252601f1990920191602091820191016123dd565b6001836020036101000a03801982511681845116808217855250505050505090500191505060006040518083038185875af1925050503d806000811461245e576040519150601f19603f3d011682016040523d82523d6000602084013e612463565b606091505b509150915061247382828661247e565b979650505050505050565b6060831561248d57508161231c565b82511561249d5782518084602001fd5b8160405162461bcd60e51b81526004018080602001828103825283818151815260200191508051906020019080838360005b838110156124e75781810151838201526020016124cf565b50505050905090810190601f1680156125145780820380516001836020036101000a031916815260200191505b509250505060405180910390fd5b828054600181600116156101000203166002900490600052602060002090601f016020900481019282612558576000855561259e565b82601f106125715782800160ff1982351617855561259e565b8280016001018555821561259e579182015b8281111561259e578235825591602001919060010190612583565b506125aa92915061262a565b5090565b828054600181600116156101000203166002900490600052602060002090601f0160209004810192826125e4576000855561259e565b82601f106125fd57805160ff191683800117855561259e565b8280016001018555821561259e579182015b8281111561259e57825182559160200191906001019061260f565b5b808211156125aa576000815560010161262b56fe4552433732313a207472616e7366657220746f206e6f6e20455243373231526563656976657220696d706c656d656e7465724552433732313a207472616e7366657220746f20746865207a65726f2061646472657373416464726573733a20696e73756666696369656e742062616c616e636520666f722063616c6c4552433732313a206f70657261746f7220717565727920666f72206e6f6e6578697374656e7420746f6b656e4b49503137456e756d657261626c653a206f776e657220696e646578206f7574206f6620626f756e64734552433732313a20617070726f76652063616c6c6572206973206e6f74206f776e6572206e6f7220617070726f76656420666f7220616c6c4552433732313a206f776e657220717565727920666f72206e6f6e6578697374656e7420746f6b656e4552433732313a20617070726f76656420717565727920666f72206e6f6e6578697374656e7420746f6b656e4552433732313a207472616e73666572206f6620746f6b656e2074686174206973206e6f74206f776e4552433732314d657461646174613a2055524920717565727920666f72206e6f6e6578697374656e7420746f6b656e4552433732313a20617070726f76616c20746f2063757272656e74206f776e65724b495031373a2062616c616e636520717565727920666f7220746865207a65726f20616464726573734552433732313a207472616e736665722063616c6c6572206973206e6f74206f776e6572206e6f7220617070726f7665644b49503137456e756d657261626c653a20676c6f62616c20696e646578206f7574206f6620626f756e64734552433732313a206275726e206f6620746f6b656e2074686174206973206e6f74206f776ea2646970667358221220a0332689ff1cda43b7ca150ac0b19cfe74da7e4aff55b682afd8fab0aa55cde664736f6c63430007060033",
  "linkReferences": {},
  "deployedLinkReferences": {}
}