{
  "_format": "hh-sol-artifact-1",
  "contractName": "ERC721Collection",
  "sourceName": "contracts/tokens/erc-721-collection/ERC721Collection.sol",
  "abi": [
    {
      "inputs": [
        {
          "internalType": "string",
          "name": "name_",
          "type": "string"
        },
        {
          "internalType": "string",
          "name": "symbol_",
          "type": "string"
        }
      ],
      "stateMutability": "nonpayable",
      "type": "constructor"
    },
    {
      "anonymous": false,
      "inputs": [
        {
          "indexed": true,
          "internalType": "address",
          "name": "owner",
          "type": "address"
        },
        {
          "indexed": true,
          "internalType": "address",
          "name": "approved",
          "type": "address"
        },
        {
          "indexed": true,
          "internalType": "uint256",
          "name": "tokenId",
          "type": "uint256"
        }
      ],
      "name": "Approval",
      "type": "event"
    },
    {
      "anonymous": false,
      "inputs": [
        {
          "indexed": true,
          "internalType": "address",
          "name": "owner",
          "type": "address"
        },
        {
          "indexed": true,
          "internalType": "address",
          "name": "operator",
          "type": "address"
        },
        {
          "indexed": false,
          "internalType": "bool",
          "name": "approved",
          "type": "bool"
        }
      ],
      "name": "ApprovalForAll",
      "type": "event"
    },
    {
      "anonymous": false,
      "inputs": [
        {
          "indexed": true,
          "internalType": "address",
          "name": "from",
          "type": "address"
        },
        {
          "indexed": true,
          "internalType": "address",
          "name": "to",
          "type": "address"
        },
        {
          "indexed": true,
          "internalType": "uint256",
          "name": "tokenId",
          "type": "uint256"
        }
      ],
      "name": "Transfer",
      "type": "event"
    },
    {
      "inputs": [],
      "name": "_ERC721_RECEIVED",
      "outputs": [
        {
          "internalType": "bytes4",
          "name": "",
          "type": "bytes4"
        }
      ],
      "stateMutability": "view",
      "type": "function"
    },
    {
      "inputs": [],
      "name": "_INTERFACE_ID_ERC721",
      "outputs": [
        {
          "internalType": "bytes4",
          "name": "",
          "type": "bytes4"
        }
      ],
      "stateMutability": "view",
      "type": "function"
    },
    {
      "inputs": [],
      "name": "_INTERFACE_ID_ERC721_ENUMERABLE",
      "outputs": [
        {
          "internalType": "bytes4",
          "name": "",
          "type": "bytes4"
        }
      ],
      "stateMutability": "view",
      "type": "function"
    },
    {
      "inputs": [],
      "name": "_INTERFACE_ID_ERC721_METADATA",
      "outputs": [
        {
          "internalType": "bytes4",
          "name": "",
          "type": "bytes4"
        }
      ],
      "stateMutability": "view",
      "type": "function"
    },
    {
      "inputs": [
        {
          "internalType": "uint256",
          "name": "",
          "type": "uint256"
        }
      ],
      "name": "_allTokens",
      "outputs": [
        {
          "internalType": "uint256",
          "name": "",
          "type": "uint256"
        }
      ],
      "stateMutability": "view",
      "type": "function"
    },
    {
      "inputs": [
        {
          "internalType": "uint256",
          "name": "",
          "type": "uint256"
        }
      ],
      "name": "_allTokensIndex",
      "outputs": [
        {
          "internalType": "uint256",
          "name": "",
          "type": "uint256"
        }
      ],
      "stateMutability": "view",
      "type": "function"
    },
    {
      "inputs": [],
      "name": "_baseURI",
      "outputs": [
        {
          "internalType": "string",
          "name": "",
          "type": "string"
        }
      ],
      "stateMutability": "view",
      "type": "function"
    },
    {
      "inputs": [],
      "name": "_name",
      "outputs": [
        {
          "internalType": "string",
          "name": "",
          "type": "string"
        }
      ],
      "stateMutability": "view",
      "type": "function"
    },
    {
      "inputs": [
        {
          "internalType": "address",
          "name": "",
          "type": "address"
        },
        {
          "internalType": "address",
          "name": "",
          "type": "address"
        }
      ],
      "name": "_operatorApprovals",
      "outputs": [
        {
          "internalType": "bool",
          "name": "",
          "type": "bool"
        }
      ],
      "stateMutability": "view",
      "type": "function"
    },
    {
      "inputs": [
        {
          "internalType": "address",
          "name": "",
          "type": "address"
        },
        {
          "internalType": "uint256",
          "name": "",
          "type": "uint256"
        }
      ],
      "name": "_ownedTokens",
      "outputs": [
        {
          "internalType": "uint256",
          "name": "",
          "type": "uint256"
        }
      ],
      "stateMutability": "view",
      "type": "function"
    },
    {
      "inputs": [
        {
          "internalType": "address",
          "name": "",
          "type": "address"
        }
      ],
      "name": "_ownedTokensCount",
      "outputs": [
        {
          "internalType": "uint256",
          "name": "_value",
          "type": "uint256"
        }
      ],
      "stateMutability": "view",
      "type": "function"
    },
    {
      "inputs": [
        {
          "internalType": "uint256",
          "name": "",
          "type": "uint256"
        }
      ],
      "name": "_ownedTokensIndex",
      "outputs": [
        {
          "internalType": "uint256",
          "name": "",
          "type": "uint256"
        }
      ],
      "stateMutability": "view",
      "type": "function"
    },
    {
      "inputs": [],
      "name": "_owner",
      "outputs": [
        {
          "internalType": "address",
          "name": "",
          "type": "address"
        }
      ],
      "stateMutability": "view",
      "type": "function"
    },
    {
      "inputs": [],
      "name": "_symbol",
      "outputs": [
        {
          "internalType": "string",
          "name": "",
          "type": "string"
        }
      ],
      "stateMutability": "view",
      "type": "function"
    },
    {
      "inputs": [
        {
          "internalType": "uint256",
          "name": "",
          "type": "uint256"
        }
      ],
      "name": "_tokenApprovals",
      "outputs": [
        {
          "internalType": "address",
          "name": "",
          "type": "address"
        }
      ],
      "stateMutability": "view",
      "type": "function"
    },
    {
      "inputs": [
        {
          "internalType": "uint256",
          "name": "",
          "type": "uint256"
        }
      ],
      "name": "_tokenOwner",
      "outputs": [
        {
          "internalType": "address",
          "name": "",
          "type": "address"
        }
      ],
      "stateMutability": "view",
      "type": "function"
    },
    {
      "inputs": [
        {
          "internalType": "uint256",
          "name": "",
          "type": "uint256"
        }
      ],
      "name": "_tokenURIs",
      "outputs": [
        {
          "internalType": "string",
          "name": "",
          "type": "string"
        }
      ],
      "stateMutability": "view",
      "type": "function"
    },
    {
      "inputs": [
        {
          "internalType": "address",
          "name": "to",
          "type": "address"
        },
        {
          "internalType": "uint256",
          "name": "tokenId",
          "type": "uint256"
        }
      ],
      "name": "approve",
      "outputs": [],
      "stateMutability": "nonpayable",
      "type": "function"
    },
    {
      "inputs": [
        {
          "internalType": "address",
          "name": "owner_",
          "type": "address"
        }
      ],
      "name": "balanceOf",
      "outputs": [
        {
          "internalType": "uint256",
          "name": "",
          "type": "uint256"
        }
      ],
      "stateMutability": "view",
      "type": "function"
    },
    {
      "inputs": [],
      "name": "baseURI",
      "outputs": [
        {
          "internalType": "string",
          "name": "",
          "type": "string"
        }
      ],
      "stateMutability": "view",
      "type": "function"
    },
    {
      "inputs": [
        {
          "internalType": "address",
          "name": "owner_",
          "type": "address"
        },
        {
          "internalType": "uint256",
          "name": "tokenId",
          "type": "uint256"
        }
      ],
      "name": "burn",
      "outputs": [],
      "stateMutability": "nonpayable",
      "type": "function"
    },
    {
      "inputs": [
        {
          "internalType": "uint256",
          "name": "tokenId",
          "type": "uint256"
        }
      ],
      "name": "getApproved",
      "outputs": [
        {
          "internalType": "address",
          "name": "",
          "type": "address"
        }
      ],
      "stateMutability": "view",
      "type": "function"
    },
    {
      "inputs": [
        {
          "internalType": "address",
          "name": "owner",
          "type": "address"
        },
        {
          "internalType": "address",
          "name": "operator",
          "type": "address"
        }
      ],
      "name": "isApprovedForAll",
      "outputs": [
        {
          "internalType": "bool",
          "name": "",
          "type": "bool"
        }
      ],
      "stateMutability": "view",
      "type": "function"
    },
    {
      "inputs": [
        {
          "internalType": "address",
          "name": "to",
          "type": "address"
        },
        {
          "internalType": "string",
          "name": "tokenURI_",
          "type": "string"
        },
        {
          "internalType": "bytes",
          "name": "_data",
          "type": "bytes"
        }
      ],
      "name": "mint",
      "outputs": [],
      "stateMutability": "nonpayable",
      "type": "function"
    },
    {
      "inputs": [
        {
          "internalType": "address",
          "name": "to",
          "type": "address"
        },
        {
          "internalType": "string",
          "name": "tokenURI_",
          "type": "string"
        }
      ],
      "name": "mint",
      "outputs": [],
      "stateMutability": "nonpayable",
      "type": "function"
    },
    {
      "inputs": [],
      "name": "name",
      "outputs": [
        {
          "internalType": "string",
          "name": "",
          "type": "string"
        }
      ],
      "stateMutability": "view",
      "type": "function"
    },
    {
      "inputs": [
        {
          "internalType": "uint256",
          "name": "tokenId",
          "type": "uint256"
        }
      ],
      "name": "ownerOf",
      "outputs": [
        {
          "internalType": "address",
          "name": "",
          "type": "address"
        }
      ],
      "stateMutability": "view",
      "type": "function"
    },
    {
      "inputs": [],
      "name": "pauseProxy",
      "outputs": [
        {
          "internalType": "bool",
          "name": "",
          "type": "bool"
        }
      ],
      "stateMutability": "view",
      "type": "function"
    },
    {
      "inputs": [
        {
          "internalType": "address",
          "name": "from",
          "type": "address"
        },
        {
          "internalType": "address",
          "name": "to",
          "type": "address"
        },
        {
          "internalType": "uint256",
          "name": "tokenId",
          "type": "uint256"
        }
      ],
      "name": "safeTransferFrom",
      "outputs": [],
      "stateMutability": "nonpayable",
      "type": "function"
    },
    {
      "inputs": [
        {
          "internalType": "address",
          "name": "from",
          "type": "address"
        },
        {
          "internalType": "address",
          "name": "to",
          "type": "address"
        },
        {
          "internalType": "uint256",
          "name": "tokenId",
          "type": "uint256"
        },
        {
          "internalType": "bytes",
          "name": "_data",
          "type": "bytes"
        }
      ],
      "name": "safeTransferFrom",
      "outputs": [],
      "stateMutability": "nonpayable",
      "type": "function"
    },
    {
      "inputs": [
        {
          "internalType": "address",
          "name": "operator",
          "type": "address"
        },
        {
          "internalType": "bool",
          "name": "approved",
          "type": "bool"
        }
      ],
      "name": "setApprovalForAll",
      "outputs": [],
      "stateMutability": "nonpayable",
      "type": "function"
    },
    {
      "inputs": [
        {
          "internalType": "string",
          "name": "baseURI_",
          "type": "string"
        }
      ],
      "name": "setBaseURI",
      "outputs": [],
      "stateMutability": "nonpayable",
      "type": "function"
    },
    {
      "inputs": [
        {
          "internalType": "uint256",
          "name": "tokenId",
          "type": "uint256"
        },
        {
          "internalType": "string",
          "name": "_tokenURI",
          "type": "string"
        }
      ],
      "name": "setTokenURI",
      "outputs": [],
      "stateMutability": "nonpayable",
      "type": "function"
    },
    {
      "inputs": [
        {
          "internalType": "bytes4",
          "name": "interfaceId",
          "type": "bytes4"
        }
      ],
      "name": "supportsInterface",
      "outputs": [
        {
          "internalType": "bool",
          "name": "",
          "type": "bool"
        }
      ],
      "stateMutability": "view",
      "type": "function"
    },
    {
      "inputs": [],
      "name": "symbol",
      "outputs": [
        {
          "internalType": "string",
          "name": "",
          "type": "string"
        }
      ],
      "stateMutability": "view",
      "type": "function"
    },
    {
      "inputs": [
        {
          "internalType": "uint256",
          "name": "index",
          "type": "uint256"
        }
      ],
      "name": "tokenByIndex",
      "outputs": [
        {
          "internalType": "uint256",
          "name": "",
          "type": "uint256"
        }
      ],
      "stateMutability": "view",
      "type": "function"
    },
    {
      "inputs": [
        {
          "internalType": "address",
          "name": "owner_",
          "type": "address"
        },
        {
          "internalType": "uint256",
          "name": "index",
          "type": "uint256"
        }
      ],
      "name": "tokenOfOwnerByIndex",
      "outputs": [
        {
          "internalType": "uint256",
          "name": "",
          "type": "uint256"
        }
      ],
      "stateMutability": "view",
      "type": "function"
    },
    {
      "inputs": [
        {
          "internalType": "uint256",
          "name": "tokenId",
          "type": "uint256"
        }
      ],
      "name": "tokenURI",
      "outputs": [
        {
          "internalType": "string",
          "name": "",
          "type": "string"
        }
      ],
      "stateMutability": "view",
      "type": "function"
    },
    {
      "inputs": [
        {
          "internalType": "address",
          "name": "owner_",
          "type": "address"
        }
      ],
      "name": "tokensOfOwner",
      "outputs": [
        {
          "internalType": "uint256[]",
          "name": "",
          "type": "uint256[]"
        }
      ],
      "stateMutability": "view",
      "type": "function"
    },
    {
      "inputs": [],
      "name": "totalSupply",
      "outputs": [
        {
          "internalType": "uint256",
          "name": "",
          "type": "uint256"
        }
      ],
      "stateMutability": "view",
      "type": "function"
    },
    {
      "inputs": [
        {
          "internalType": "address",
          "name": "from",
          "type": "address"
        },
        {
          "internalType": "address",
          "name": "to",
          "type": "address"
        },
        {
          "internalType": "uint256",
          "name": "tokenId",
          "type": "uint256"
        }
      ],
      "name": "transferFrom",
      "outputs": [],
      "stateMutability": "nonpayable",
      "type": "function"
    }
  ],
  "bytecode": "0x60806040523480156200001157600080fd5b5060405162002d2938038062002d29833981810160405260408110156200003757600080fd5b81019080805160405193929190846401000000008211156200005857600080fd5b9083019060208201858111156200006e57600080fd5b82516401000000008111828201881017156200008957600080fd5b82525081516020918201929091019080838360005b83811015620000b85781810151838201526020016200009e565b50505050905090810190601f168015620000e65780820380516001836020036101000a031916815260200191505b50604052602001805160405193929190846401000000008211156200010a57600080fd5b9083019060208201858111156200012057600080fd5b82516401000000008111828201881017156200013b57600080fd5b82525081516020918201929091019080838360005b838110156200016a57818101518382015260200162000150565b50505050905090810190601f168015620001985780820380516001836020036101000a031916815260200191505b5060405250620001b391506301ffc9a760e01b90506200021d565b8151620001c8906002906020850190620002a2565b508051620001de906003906020840190620002a2565b50620001f16380ac58cd60e01b6200021d565b62000203635b5e139f60e01b6200021d565b6200021563780e9d6360e01b6200021d565b50506200034e565b6001600160e01b031980821614156200027d576040805162461bcd60e51b815260206004820152601c60248201527f4552433136353a20696e76616c696420696e7465726661636520696400000000604482015290519081900360640190fd5b6001600160e01b0319166000908152602081905260409020805460ff19166001179055565b828054600181600116156101000203166002900490600052602060002090601f016020900481019282620002da576000855562000325565b82601f10620002f557805160ff191683800117855562000325565b8280016001018555821562000325579182015b828111156200032557825182559160200191906001019062000308565b506200033392915062000337565b5090565b5b8082111562000333576000815560010162000338565b6129cb806200035e6000396000f3fe608060405234801561001057600080fd5b50600436106102535760003560e01c806388290adc11610146578063b01ac591116100c3578063d0def52111610087578063d0def521146109cc578063d28d885214610a4a578063dece685414610a52578063e985e9c514610a5a578063edc3bc3f14610a88578063f663171814610ab657610253565b8063b01ac591146108d3578063b09f1266146108db578063b2bdfa7b146108e3578063b88d4fde146108eb578063c87b56dd146109af57610253565b8063a22cb4651161010a578063a22cb46514610831578063a2e9b4391461085f578063a72636651461087c578063a7cc013614610899578063aa5965ae146108b657610253565b806388290adc146106cc5780638d75533f146106f157806394a509dd146107f557806395d89b41146107fd5780639dc29fac1461080557610253565b80634f3c5f06116101d45780636c0360eb116101985780636c0360eb1461060357806370a082311461060b578063743976a014610631578063796db312146106395780638462151c1461065657610253565b80634f3c5f06146104f15780634f6ccce71461051d57806355f804b31461053a5780636352211e146105de57806363a8fd89146105fb57610253565b8063162094c41161021b578063162094c41461039457806318160ddd1461043f57806323b872dd146104595780632f745c591461048f57806342842e0e146104bb57610253565b806301ffc9a71461025857806306fdde0314610293578063081812fc14610310578063095ea7b3146103495780630bb78ec114610377575b600080fd5b61027f6004803603602081101561026e57600080fd5b50356001600160e01b031916610adc565b604080519115158252519081900360200190f35b61029b610aff565b6040805160208082528351818301528351919283929083019185019080838360005b838110156102d55781810151838201526020016102bd565b50505050905090810190601f1680156103025780820380516001836020036101000a031916815260200191505b509250505060405180910390f35b61032d6004803603602081101561032657600080fd5b5035610b92565b604080516001600160a01b039092168252519081900360200190f35b6103756004803603604081101561035f57600080fd5b506001600160a01b038135169060200135610bf4565b005b61029b6004803603602081101561038d57600080fd5b5035610ccf565b610375600480360360408110156103aa57600080fd5b81359190810190604081016020820135600160201b8111156103cb57600080fd5b8201836020820111156103dd57600080fd5b803590602001918460018302840111600160201b831117156103fe57600080fd5b91908080601f016020809104026020016040519081016040528093929190818152602001838380828437600092019190915250929550610d6a945050505050565b610447610dd0565b60408051918252519081900360200190f35b6103756004803603606081101561046f57600080fd5b506001600160a01b03813581169160208101359091169060400135610dd6565b610447600480360360408110156104a557600080fd5b506001600160a01b038135169060200135610e2d565b610375600480360360608110156104d157600080fd5b506001600160a01b03813581169160208101359091169060400135610eac565b6104476004803603604081101561050757600080fd5b506001600160a01b038135169060200135610ec7565b6104476004803603602081101561053357600080fd5b5035610ef8565b6103756004803603602081101561055057600080fd5b810190602081018135600160201b81111561056a57600080fd5b82018360208201111561057c57600080fd5b803590602001918460018302840111600160201b8311171561059d57600080fd5b91908080601f016020809104026020016040519081016040528093929190818152602001838380828437600092019190915250929550610f5e945050505050565b61032d600480360360208110156105f457600080fd5b5035610fc2565b61027f61101c565b61029b611025565b6104476004803603602081101561062157600080fd5b50356001600160a01b0316611086565b61029b6110ee565b61032d6004803603602081101561064f57600080fd5b5035611149565b61067c6004803603602081101561066c57600080fd5b50356001600160a01b0316611164565b60408051602080825283518183015283519192839290830191858101910280838360005b838110156106b85781810151838201526020016106a0565b505050509050019250505060405180910390f35b6106d46111d0565b604080516001600160e01b03199092168252519081900360200190f35b6103756004803603606081101561070757600080fd5b6001600160a01b038235169190810190604081016020820135600160201b81111561073157600080fd5b82018360208201111561074357600080fd5b803590602001918460018302840111600160201b8311171561076457600080fd5b919390929091602081019035600160201b81111561078157600080fd5b82018360208201111561079357600080fd5b803590602001918460018302840111600160201b831117156107b457600080fd5b91908080601f0160208091040260200160405190810160405280939291908181526020018383808284376000920191909152509295506111db945050505050565b6106d461126b565b61029b611276565b6103756004803603604081101561081b57600080fd5b506001600160a01b0381351690602001356112d7565b6103756004803603604081101561084757600080fd5b506001600160a01b0381351690602001351515611303565b6104476004803603602081101561087557600080fd5b5035611408565b6104476004803603602081101561089257600080fd5b503561141a565b61032d600480360360208110156108af57600080fd5b503561142c565b610447600480360360208110156108cc57600080fd5b5035611447565b6106d4611468565b61029b611473565b61032d6114ce565b6103756004803603608081101561090157600080fd5b6001600160a01b03823581169260208101359091169160408201359190810190608081016060820135600160201b81111561093b57600080fd5b82018360208201111561094d57600080fd5b803590602001918460018302840111600160201b8311171561096e57600080fd5b91908080601f0160208091040260200160405190810160405280939291908181526020018383808284376000920191909152509295506114dd945050505050565b61029b600480360360208110156109c557600080fd5b503561153b565b610375600480360360408110156109e257600080fd5b6001600160a01b038235169190810190604081016020820135600160201b811115610a0c57600080fd5b820183602082011115610a1e57600080fd5b803590602001918460018302840111600160201b83111715610a3f57600080fd5b5090925090506117bc565b61029b61184a565b6106d46118a2565b61027f60048036036040811015610a7057600080fd5b506001600160a01b03813581169160200135166118ad565b61027f60048036036040811015610a9e57600080fd5b506001600160a01b03813581169160200135166118db565b61044760048036036020811015610acc57600080fd5b50356001600160a01b03166118fb565b6001600160e01b0319811660009081526020819052604090205460ff165b919050565b60028054604080516020601f6000196101006001871615020190941685900493840181900481028201810190925282815260609390929091830182828015610b885780601f10610b5d57610100808354040283529160200191610b88565b820191906000526020600020905b815481529060010190602001808311610b6b57829003601f168201915b5050505050905090565b6000610b9d8261190d565b610bd85760405162461bcd60e51b815260040180806020018281038252602c815260200180612827602c913960400191505060405180910390fd5b506000908152600760205260409020546001600160a01b031690565b6000610bff82610fc2565b9050806001600160a01b0316836001600160a01b03161415610c525760405162461bcd60e51b81526004018080602001828103825260218152602001806128ab6021913960400191505060405180910390fd5b806001600160a01b0316610c6461192a565b6001600160a01b03161480610c855750610c8581610c8061192a565b6118ad565b610cc05760405162461bcd60e51b81526004018080602001828103825260388152602001806127c66038913960400191505060405180910390fd5b610cca838361192e565b505050565b60046020908152600091825260409182902080548351601f600260001961010060018616150201909316929092049182018490048402810184019094528084529091830182828015610d625780601f10610d3757610100808354040283529160200191610d62565b820191906000526020600020905b815481529060010190602001808311610d4557829003601f168201915b505050505081565b610d7261192a565b6001546001600160a01b03908116911614610dc2576040805162461bcd60e51b815260206004820152601f60248201526000805160206128f5833981519152604482015290519081900360640190fd5b610dcc8282610d6a565b5050565b600c5490565b610de7610de161192a565b8261199c565b610e225760405162461bcd60e51b81526004018080602001828103825260318152602001806129156031913960400191505060405180910390fd5b610cca838383611a40565b6000610e3883611086565b8210610e755760405162461bcd60e51b815260040180806020018281038252602a81526020018061279c602a913960400191505060405180910390fd5b6001600160a01b0383166000908152600a60205260409020805483908110610e9957fe5b9060005260206000200154905092915050565b610cca838383604051806020016040528060008152506114dd565b600a6020528160005260406000208181548110610ee357600080fd5b90600052602060002001600091509150505481565b6000610f02610dd0565b8210610f3f5760405162461bcd60e51b815260040180806020018281038252602b815260200180612946602b913960400191505060405180910390fd5b600c8281548110610f4c57fe5b90600052602060002001549050919050565b610f6661192a565b6001546001600160a01b03908116911614610fb6576040805162461bcd60e51b815260206004820152601f60248201526000805160206128f5833981519152604482015290519081900360640190fd5b610fbf81611b8f565b50565b6000818152600660205260408120546001600160a01b0316806110165760405162461bcd60e51b81526004018080602001828103825260298152602001806127fe6029913960400191505060405180910390fd5b92915050565b600e5460ff1681565b60058054604080516020601f6002600019610100600188161502019095169490940493840181900481028201810190925282815260609390929091830182828015610b885780601f10610b5d57610100808354040283529160200191610b88565b60006001600160a01b0382166110cd5760405162461bcd60e51b81526004018080602001828103825260298152602001806128cc6029913960400191505060405180910390fd5b6001600160a01b038216600090815260086020526040902061101690611ba2565b6005805460408051602060026001851615610100026000190190941693909304601f81018490048402820184019092528181529291830182828015610d625780601f10610d3757610100808354040283529160200191610d62565b6006602052600090815260409020546001600160a01b031681565b6001600160a01b0381166000908152600a60209081526040918290208054835181840281018401909452808452606093928301828280156111c457602002820191906000526020600020905b8154815260200190600101908083116111b0575b50505050509050919050565b630a85bd0160e11b81565b6111e361192a565b6001546001600160a01b03908116911614611233576040805162461bcd60e51b815260206004820152601f60248201526000805160206128f5833981519152604482015290519081900360640190fd5b600061123d610dd0565b905061124a858284611ba6565b60008181526004602052604090206112639085856125d6565b505050505050565b635b5e139f60e01b81565b60038054604080516020601f6002600019610100600188161502019095169490940493840181900481028201810190925282815260609390929091830182828015610b885780601f10610b5d57610100808354040283529160200191610b88565b6112e18282611c0b565b6112eb8282611cee565b6000818152600b6020526040812055610dcc81611dea565b61130b61192a565b6001600160a01b0316826001600160a01b03161415611371576040805162461bcd60e51b815260206004820152601960248201527f4552433732313a20617070726f766520746f2063616c6c657200000000000000604482015290519081900360640190fd5b806009600061137e61192a565b6001600160a01b03908116825260208083019390935260409182016000908120918716808252919093529120805460ff1916921515929092179091556113c261192a565b6001600160a01b03167f17307eab39ab6107e8899845ad3d59bd9653f200f220920489ca2b5937696c318360405180821515815260200191505060405180910390a35050565b600b6020526000908152604090205481565b600d6020526000908152604090205481565b6007602052600090815260409020546001600160a01b031681565b600c818154811061145757600080fd5b600091825260209091200154905081565b63780e9d6360e01b81565b6003805460408051602060026001851615610100026000190190941693909304601f81018490048402820184019092528181529291830182828015610d625780601f10610d3757610100808354040283529160200191610d62565b6001546001600160a01b031681565b6114ee6114e861192a565b8361199c565b6115295760405162461bcd60e51b81526004018080602001828103825260318152602001806129156031913960400191505060405180910390fd5b61153584848484611e98565b50505050565b60606115468261190d565b6115815760405162461bcd60e51b815260040180806020018281038252602f81526020018061287c602f913960400191505060405180910390fd5b60008281526004602090815260408083208054825160026001831615610100026000190190921691909104601f8101859004850282018501909352828152929091908301828280156116145780601f106115e957610100808354040283529160200191611614565b820191906000526020600020905b8154815290600101906020018083116115f757829003601f168201915b505050505090506000611625611025565b905080516000141561163957509050610afa565b8151156116fa5780826040516020018083805190602001908083835b602083106116745780518252601f199092019160209182019101611655565b51815160209384036101000a600019018019909216911617905285519190930192850191508083835b602083106116bc5780518252601f19909201916020918201910161169d565b6001836020036101000a0380198251168184511680821785525050505050509050019250505060405160208183030381529060405292505050610afa565b8061170485611eea565b6040516020018083805190602001908083835b602083106117365780518252601f199092019160209182019101611717565b51815160209384036101000a600019018019909216911617905285519190930192850191508083835b6020831061177e5780518252601f19909201916020918201910161175f565b6001836020036101000a0380198251168184511680821785525050505050509050019250505060405160208183030381529060405292505050919050565b6117c461192a565b6001546001600160a01b03908116911614611814576040805162461bcd60e51b815260206004820152601f60248201526000805160206128f5833981519152604482015290519081900360640190fd5b600061181e610dd0565b905061182a8482611fc5565b60008181526004602052604090206118439084846125d6565b5050505050565b6002805460408051602060018416156101000260001901909316849004601f81018490048402820184019092528181529291830182828015610d625780601f10610d3757610100808354040283529160200191610d62565b6380ac58cd60e01b81565b6001600160a01b03918216600090815260096020908152604080832093909416825291909152205460ff1690565b600960209081526000928352604080842090915290825290205460ff1681565b60086020526000908152604090205481565b6000908152600660205260409020546001600160a01b0316151590565b3390565b600081815260076020526040902080546001600160a01b0319166001600160a01b038416908117909155819061196382610fc2565b6001600160a01b03167f8c5be1e5ebec7d5bd14f71427d1e84f3dd0314c0f7b2291e5b200ac8c7c3b92560405160405180910390a45050565b60006119a78261190d565b6119e25760405162461bcd60e51b815260040180806020018281038252602c815260200180612770602c913960400191505060405180910390fd5b60006119ed83610fc2565b9050806001600160a01b0316846001600160a01b03161480611a285750836001600160a01b0316611a1d84610b92565b6001600160a01b0316145b80611a385750611a3881856118ad565b949350505050565b826001600160a01b0316611a5382610fc2565b6001600160a01b031614611a985760405162461bcd60e51b81526004018080602001828103825260298152602001806128536029913960400191505060405180910390fd5b6001600160a01b038216611add5760405162461bcd60e51b81526004018080602001828103825260248152602001806127266024913960400191505060405180910390fd5b611ae8838383610cca565b611af181611fdf565b6001600160a01b0383166000908152600860205260409020611b129061201a565b6001600160a01b0382166000908152600860205260409020611b339061202b565b60008181526006602052604080822080546001600160a01b0319166001600160a01b0386811691821790925591518493918716917fddf252ad1be2c89b69c2b068fc378daa952ba7f163c4a11628f55a4df523b3ef91a4505050565b8051610dcc906005906020840190612662565b5490565b611bb08383612034565b611bba8383612171565b611bc3826121af565b611bd060008484846121f3565b610cca5760405162461bcd60e51b81526004018080602001828103825260328152602001806126f46032913960400191505060405180910390fd5b816001600160a01b0316611c1e82610fc2565b6001600160a01b031614611c635760405162461bcd60e51b81526004018080602001828103825260258152602001806129716025913960400191505060405180910390fd5b611c6f82600083610cca565b611c7881611fdf565b6001600160a01b0382166000908152600860205260409020611c999061201a565b60008181526006602052604080822080546001600160a01b0319169055518291906001600160a01b038516907fddf252ad1be2c89b69c2b068fc378daa952ba7f163c4a11628f55a4df523b3ef908390a45050565b6001600160a01b0382166000908152600a6020526040812054611d1290600161235b565b6000838152600b6020526040902054909150808214611dad576001600160a01b0384166000908152600a60205260408120805484908110611d4f57fe5b9060005260206000200154905080600a6000876001600160a01b03166001600160a01b031681526020019081526020016000208381548110611d8d57fe5b6000918252602080832090910192909255918252600b9052604090208190555b6001600160a01b0384166000908152600a60205260409020805480611dce57fe5b6001900381819060005260206000200160009055905550505050565b600c54600090611dfb90600161235b565b6000838152600d6020526040812054600c8054939450909284908110611e1d57fe5b9060005260206000200154905080600c8381548110611e3857fe5b6000918252602080832090910192909255828152600d90915260409020829055600c805480611e6357fe5b600190038181906000526020600020016000905590556000600d60008681526020019081526020016000208190555050505050565b611ea3848484611a40565b611eaf848484846121f3565b6115355760405162461bcd60e51b81526004018080602001828103825260328152602001806126f46032913960400191505060405180910390fd5b606081611f0f57506040805180820190915260018152600360fc1b6020820152610afa565b8160005b8115611f2757600101600a82049150611f13565b60008167ffffffffffffffff81118015611f4057600080fd5b506040519080825280601f01601f191660200182016040528015611f6b576020820181803683370190505b50859350905060001982015b8315611fbc57600a840660300160f81b82828060019003935081518110611f9a57fe5b60200101906001600160f81b031916908160001a905350600a84049350611f77565b50949350505050565b610dcc828260405180602001604052806000815250611ba6565b6000818152600760205260409020546001600160a01b031615610fbf57600090815260076020526040902080546001600160a01b0319169055565b805461202790600161235b565b9055565b80546001019055565b6001600160a01b03821661208f576040805162461bcd60e51b815260206004820181905260248201527f4552433732313a206d696e7420746f20746865207a65726f2061646472657373604482015290519081900360640190fd5b6120988161190d565b156120ea576040805162461bcd60e51b815260206004820152601c60248201527f4552433732313a20746f6b656e20616c7265616479206d696e74656400000000604482015290519081900360640190fd5b6120f660008383610cca565b600081815260066020908152604080832080546001600160a01b0319166001600160a01b0387169081179091558352600890915290206121359061202b565b60405181906001600160a01b038416906000907fddf252ad1be2c89b69c2b068fc378daa952ba7f163c4a11628f55a4df523b3ef908290a45050565b6001600160a01b039091166000908152600a602081815260408084208054868652600b84529185208290559282526001810183559183529091200155565b600c80546000838152600d60205260408120829055600182018355919091527fdf6966c971051c3d54ec59162606531493a51404a002842f56009d7e5cf4a8c70155565b6000612207846001600160a01b03166123b8565b61221357506001611a38565b6000612321630a85bd0160e11b61222861192a565b88878760405160240180856001600160a01b03168152602001846001600160a01b0316815260200183815260200180602001828103825283818151815260200191508051906020019080838360005b8381101561228f578181015183820152602001612277565b50505050905090810190601f1680156122bc5780820380516001836020036101000a031916815260200191505b5095505050505050604051602081830303815290604052906001600160e01b0319166020820180516001600160e01b0383818316178352505050506040518060600160405280603281526020016126f4603291396001600160a01b03881691906123be565b9050600081806020019051602081101561233a57600080fd5b50516001600160e01b031916630a85bd0160e11b1492505050949350505050565b6000828211156123b2576040805162461bcd60e51b815260206004820152601e60248201527f536166654d6174683a207375627472616374696f6e206f766572666c6f770000604482015290519081900360640190fd5b50900390565b3b151590565b60606123cd84846000856123d7565b90505b9392505050565b6060824710156124185760405162461bcd60e51b815260040180806020018281038252602681526020018061274a6026913960400191505060405180910390fd5b612421856123b8565b612472576040805162461bcd60e51b815260206004820152601d60248201527f416464726573733a2063616c6c20746f206e6f6e2d636f6e7472616374000000604482015290519081900360640190fd5b600080866001600160a01b031685876040518082805190602001908083835b602083106124b05780518252601f199092019160209182019101612491565b6001836020036101000a03801982511681845116808217855250505050505090500191505060006040518083038185875af1925050503d8060008114612512576040519150601f19603f3d011682016040523d82523d6000602084013e612517565b606091505b5091509150612527828286612532565b979650505050505050565b606083156125415750816123d0565b8251156125515782518084602001fd5b8160405162461bcd60e51b81526004018080602001828103825283818151815260200191508051906020019080838360005b8381101561259b578181015183820152602001612583565b50505050905090810190601f1680156125c85780820380516001836020036101000a031916815260200191505b509250505060405180910390fd5b828054600181600116156101000203166002900490600052602060002090601f01602090048101928261260c5760008555612652565b82601f106126255782800160ff19823516178555612652565b82800160010185558215612652579182015b82811115612652578235825591602001919060010190612637565b5061265e9291506126de565b5090565b828054600181600116156101000203166002900490600052602060002090601f0160209004810192826126985760008555612652565b82601f106126b157805160ff1916838001178555612652565b82800160010185558215612652579182015b828111156126525782518255916020019190600101906126c3565b5b8082111561265e57600081556001016126df56fe4552433732313a207472616e7366657220746f206e6f6e20455243373231526563656976657220696d706c656d656e7465724552433732313a207472616e7366657220746f20746865207a65726f2061646472657373416464726573733a20696e73756666696369656e742062616c616e636520666f722063616c6c4552433732313a206f70657261746f7220717565727920666f72206e6f6e6578697374656e7420746f6b656e4b49503137456e756d657261626c653a206f776e657220696e646578206f7574206f6620626f756e64734552433732313a20617070726f76652063616c6c6572206973206e6f74206f776e6572206e6f7220617070726f76656420666f7220616c6c4552433732313a206f776e657220717565727920666f72206e6f6e6578697374656e7420746f6b656e4552433732313a20617070726f76656420717565727920666f72206e6f6e6578697374656e7420746f6b656e4552433732313a207472616e73666572206f6620746f6b656e2074686174206973206e6f74206f776e4552433732314d657461646174613a2055524920717565727920666f72206e6f6e6578697374656e7420746f6b656e4552433732313a20617070726f76616c20746f2063757272656e74206f776e65724b495031373a2062616c616e636520717565727920666f7220746865207a65726f20616464726573734552433732313a2063616c6c6572206973206e6f7420746865206f776e6572004552433732313a207472616e736665722063616c6c6572206973206e6f74206f776e6572206e6f7220617070726f7665644b49503137456e756d657261626c653a20676c6f62616c20696e646578206f7574206f6620626f756e64734552433732313a206275726e206f6620746f6b656e2074686174206973206e6f74206f776ea2646970667358221220ef14a5b3eb7eebfb95fdfecea76be8572f47ffa3821435ab418fcda3f09afb5e64736f6c63430007060033",
  "linkReferences": {},
  "deployedLinkReferences": {}
}