{
  "_format": "hh-sol-artifact-1",
  "contractName": "TestToken",
  "sourceName": "contracts/token/TestToken.sol",
  "abi": [
    {
      "inputs": [
        {
          "internalType": "string",
          "name": "name",
          "type": "string"
        },
        {
          "internalType": "string",
          "name": "symbol",
          "type": "string"
        }
      ],
      "stateMutability": "nonpayable",
      "type": "constructor"
    },
    {
      "anonymous": false,
      "inputs": [
        {
          "indexed": true,
          "internalType": "address",
          "name": "owner",
          "type": "address"
        },
        {
          "indexed": true,
          "internalType": "address",
          "name": "approved",
          "type": "address"
        },
        {
          "indexed": true,
          "internalType": "uint256",
          "name": "tokenId",
          "type": "uint256"
        }
      ],
      "name": "Approval",
      "type": "event"
    },
    {
      "anonymous": false,
      "inputs": [
        {
          "indexed": true,
          "internalType": "address",
          "name": "owner",
          "type": "address"
        },
        {
          "indexed": true,
          "internalType": "address",
          "name": "operator",
          "type": "address"
        },
        {
          "indexed": false,
          "internalType": "bool",
          "name": "approved",
          "type": "bool"
        }
      ],
      "name": "ApprovalForAll",
      "type": "event"
    },
    {
      "anonymous": false,
      "inputs": [
        {
          "indexed": false,
          "internalType": "address",
          "name": "account",
          "type": "address"
        }
      ],
      "name": "Paused",
      "type": "event"
    },
    {
      "anonymous": false,
      "inputs": [
        {
          "indexed": true,
          "internalType": "bytes32",
          "name": "role",
          "type": "bytes32"
        },
        {
          "indexed": true,
          "internalType": "bytes32",
          "name": "previousAdminRole",
          "type": "bytes32"
        },
        {
          "indexed": true,
          "internalType": "bytes32",
          "name": "newAdminRole",
          "type": "bytes32"
        }
      ],
      "name": "RoleAdminChanged",
      "type": "event"
    },
    {
      "anonymous": false,
      "inputs": [
        {
          "indexed": true,
          "internalType": "bytes32",
          "name": "role",
          "type": "bytes32"
        },
        {
          "indexed": true,
          "internalType": "address",
          "name": "account",
          "type": "address"
        },
        {
          "indexed": true,
          "internalType": "address",
          "name": "sender",
          "type": "address"
        }
      ],
      "name": "RoleGranted",
      "type": "event"
    },
    {
      "anonymous": false,
      "inputs": [
        {
          "indexed": true,
          "internalType": "bytes32",
          "name": "role",
          "type": "bytes32"
        },
        {
          "indexed": true,
          "internalType": "address",
          "name": "account",
          "type": "address"
        },
        {
          "indexed": true,
          "internalType": "address",
          "name": "sender",
          "type": "address"
        }
      ],
      "name": "RoleRevoked",
      "type": "event"
    },
    {
      "anonymous": false,
      "inputs": [
        {
          "indexed": true,
          "internalType": "address",
          "name": "from",
          "type": "address"
        },
        {
          "indexed": true,
          "internalType": "address",
          "name": "to",
          "type": "address"
        },
        {
          "indexed": true,
          "internalType": "uint256",
          "name": "tokenId",
          "type": "uint256"
        }
      ],
      "name": "Transfer",
      "type": "event"
    },
    {
      "anonymous": false,
      "inputs": [
        {
          "indexed": false,
          "internalType": "address",
          "name": "account",
          "type": "address"
        }
      ],
      "name": "Unpaused",
      "type": "event"
    },
    {
      "inputs": [],
      "name": "DEFAULT_ADMIN_ROLE",
      "outputs": [
        {
          "internalType": "bytes32",
          "name": "",
          "type": "bytes32"
        }
      ],
      "stateMutability": "view",
      "type": "function"
    },
    {
      "inputs": [],
      "name": "MINTER_ROLE",
      "outputs": [
        {
          "internalType": "bytes32",
          "name": "",
          "type": "bytes32"
        }
      ],
      "stateMutability": "view",
      "type": "function"
    },
    {
      "inputs": [],
      "name": "PAUSER_ROLE",
      "outputs": [
        {
          "internalType": "bytes32",
          "name": "",
          "type": "bytes32"
        }
      ],
      "stateMutability": "view",
      "type": "function"
    },
    {
      "inputs": [
        {
          "internalType": "uint256",
          "name": "",
          "type": "uint256"
        }
      ],
      "name": "_tokenURIs",
      "outputs": [
        {
          "internalType": "string",
          "name": "",
          "type": "string"
        }
      ],
      "stateMutability": "view",
      "type": "function"
    },
    {
      "inputs": [
        {
          "internalType": "address",
          "name": "to",
          "type": "address"
        },
        {
          "internalType": "uint256",
          "name": "tokenId",
          "type": "uint256"
        }
      ],
      "name": "approve",
      "outputs": [],
      "stateMutability": "nonpayable",
      "type": "function"
    },
    {
      "inputs": [
        {
          "internalType": "address",
          "name": "owner",
          "type": "address"
        }
      ],
      "name": "balanceOf",
      "outputs": [
        {
          "internalType": "uint256",
          "name": "",
          "type": "uint256"
        }
      ],
      "stateMutability": "view",
      "type": "function"
    },
    {
      "inputs": [
        {
          "internalType": "uint256",
          "name": "tokenId",
          "type": "uint256"
        }
      ],
      "name": "burn",
      "outputs": [],
      "stateMutability": "nonpayable",
      "type": "function"
    },
    {
      "inputs": [
        {
          "internalType": "uint256",
          "name": "tokenId",
          "type": "uint256"
        }
      ],
      "name": "getApproved",
      "outputs": [
        {
          "internalType": "address",
          "name": "",
          "type": "address"
        }
      ],
      "stateMutability": "view",
      "type": "function"
    },
    {
      "inputs": [
        {
          "internalType": "bytes32",
          "name": "role",
          "type": "bytes32"
        }
      ],
      "name": "getRoleAdmin",
      "outputs": [
        {
          "internalType": "bytes32",
          "name": "",
          "type": "bytes32"
        }
      ],
      "stateMutability": "view",
      "type": "function"
    },
    {
      "inputs": [
        {
          "internalType": "bytes32",
          "name": "role",
          "type": "bytes32"
        },
        {
          "internalType": "uint256",
          "name": "index",
          "type": "uint256"
        }
      ],
      "name": "getRoleMember",
      "outputs": [
        {
          "internalType": "address",
          "name": "",
          "type": "address"
        }
      ],
      "stateMutability": "view",
      "type": "function"
    },
    {
      "inputs": [
        {
          "internalType": "bytes32",
          "name": "role",
          "type": "bytes32"
        }
      ],
      "name": "getRoleMemberCount",
      "outputs": [
        {
          "internalType": "uint256",
          "name": "",
          "type": "uint256"
        }
      ],
      "stateMutability": "view",
      "type": "function"
    },
    {
      "inputs": [
        {
          "internalType": "bytes32",
          "name": "role",
          "type": "bytes32"
        },
        {
          "internalType": "address",
          "name": "account",
          "type": "address"
        }
      ],
      "name": "grantRole",
      "outputs": [],
      "stateMutability": "nonpayable",
      "type": "function"
    },
    {
      "inputs": [
        {
          "internalType": "bytes32",
          "name": "role",
          "type": "bytes32"
        },
        {
          "internalType": "address",
          "name": "account",
          "type": "address"
        }
      ],
      "name": "hasRole",
      "outputs": [
        {
          "internalType": "bool",
          "name": "",
          "type": "bool"
        }
      ],
      "stateMutability": "view",
      "type": "function"
    },
    {
      "inputs": [
        {
          "internalType": "address",
          "name": "owner",
          "type": "address"
        },
        {
          "internalType": "address",
          "name": "operator",
          "type": "address"
        }
      ],
      "name": "isApprovedForAll",
      "outputs": [
        {
          "internalType": "bool",
          "name": "",
          "type": "bool"
        }
      ],
      "stateMutability": "view",
      "type": "function"
    },
    {
      "inputs": [
        {
          "internalType": "address",
          "name": "to",
          "type": "address"
        },
        {
          "internalType": "string",
          "name": "_tokenURI",
          "type": "string"
        }
      ],
      "name": "mint",
      "outputs": [],
      "stateMutability": "nonpayable",
      "type": "function"
    },
    {
      "inputs": [],
      "name": "name",
      "outputs": [
        {
          "internalType": "string",
          "name": "",
          "type": "string"
        }
      ],
      "stateMutability": "view",
      "type": "function"
    },
    {
      "inputs": [
        {
          "internalType": "uint256",
          "name": "tokenId",
          "type": "uint256"
        }
      ],
      "name": "ownerOf",
      "outputs": [
        {
          "internalType": "address",
          "name": "",
          "type": "address"
        }
      ],
      "stateMutability": "view",
      "type": "function"
    },
    {
      "inputs": [],
      "name": "pause",
      "outputs": [],
      "stateMutability": "nonpayable",
      "type": "function"
    },
    {
      "inputs": [],
      "name": "paused",
      "outputs": [
        {
          "internalType": "bool",
          "name": "",
          "type": "bool"
        }
      ],
      "stateMutability": "view",
      "type": "function"
    },
    {
      "inputs": [
        {
          "internalType": "bytes32",
          "name": "role",
          "type": "bytes32"
        },
        {
          "internalType": "address",
          "name": "account",
          "type": "address"
        }
      ],
      "name": "renounceRole",
      "outputs": [],
      "stateMutability": "nonpayable",
      "type": "function"
    },
    {
      "inputs": [
        {
          "internalType": "bytes32",
          "name": "role",
          "type": "bytes32"
        },
        {
          "internalType": "address",
          "name": "account",
          "type": "address"
        }
      ],
      "name": "revokeRole",
      "outputs": [],
      "stateMutability": "nonpayable",
      "type": "function"
    },
    {
      "inputs": [
        {
          "internalType": "address",
          "name": "from",
          "type": "address"
        },
        {
          "internalType": "address",
          "name": "to",
          "type": "address"
        },
        {
          "internalType": "uint256",
          "name": "tokenId",
          "type": "uint256"
        }
      ],
      "name": "safeTransferFrom",
      "outputs": [],
      "stateMutability": "nonpayable",
      "type": "function"
    },
    {
      "inputs": [
        {
          "internalType": "address",
          "name": "from",
          "type": "address"
        },
        {
          "internalType": "address",
          "name": "to",
          "type": "address"
        },
        {
          "internalType": "uint256",
          "name": "tokenId",
          "type": "uint256"
        },
        {
          "internalType": "bytes",
          "name": "_data",
          "type": "bytes"
        }
      ],
      "name": "safeTransferFrom",
      "outputs": [],
      "stateMutability": "nonpayable",
      "type": "function"
    },
    {
      "inputs": [
        {
          "internalType": "address",
          "name": "operator",
          "type": "address"
        },
        {
          "internalType": "bool",
          "name": "approved",
          "type": "bool"
        }
      ],
      "name": "setApprovalForAll",
      "outputs": [],
      "stateMutability": "nonpayable",
      "type": "function"
    },
    {
      "inputs": [
        {
          "internalType": "string",
          "name": "baseTokenURI",
          "type": "string"
        }
      ],
      "name": "setBaseURI",
      "outputs": [],
      "stateMutability": "nonpayable",
      "type": "function"
    },
    {
      "inputs": [
        {
          "internalType": "uint256",
          "name": "tokenId",
          "type": "uint256"
        },
        {
          "internalType": "string",
          "name": "_tokenURI",
          "type": "string"
        }
      ],
      "name": "setTokenURI",
      "outputs": [],
      "stateMutability": "nonpayable",
      "type": "function"
    },
    {
      "inputs": [
        {
          "internalType": "bytes4",
          "name": "interfaceId",
          "type": "bytes4"
        }
      ],
      "name": "supportsInterface",
      "outputs": [
        {
          "internalType": "bool",
          "name": "",
          "type": "bool"
        }
      ],
      "stateMutability": "view",
      "type": "function"
    },
    {
      "inputs": [],
      "name": "symbol",
      "outputs": [
        {
          "internalType": "string",
          "name": "",
          "type": "string"
        }
      ],
      "stateMutability": "view",
      "type": "function"
    },
    {
      "inputs": [
        {
          "internalType": "uint256",
          "name": "index",
          "type": "uint256"
        }
      ],
      "name": "tokenByIndex",
      "outputs": [
        {
          "internalType": "uint256",
          "name": "",
          "type": "uint256"
        }
      ],
      "stateMutability": "view",
      "type": "function"
    },
    {
      "inputs": [
        {
          "internalType": "address",
          "name": "owner",
          "type": "address"
        },
        {
          "internalType": "uint256",
          "name": "index",
          "type": "uint256"
        }
      ],
      "name": "tokenOfOwnerByIndex",
      "outputs": [
        {
          "internalType": "uint256",
          "name": "",
          "type": "uint256"
        }
      ],
      "stateMutability": "view",
      "type": "function"
    },
    {
      "inputs": [
        {
          "internalType": "uint256",
          "name": "tokenId",
          "type": "uint256"
        }
      ],
      "name": "tokenURI",
      "outputs": [
        {
          "internalType": "string",
          "name": "",
          "type": "string"
        }
      ],
      "stateMutability": "view",
      "type": "function"
    },
    {
      "inputs": [],
      "name": "totalSupply",
      "outputs": [
        {
          "internalType": "uint256",
          "name": "",
          "type": "uint256"
        }
      ],
      "stateMutability": "view",
      "type": "function"
    },
    {
      "inputs": [
        {
          "internalType": "address",
          "name": "from",
          "type": "address"
        },
        {
          "internalType": "address",
          "name": "to",
          "type": "address"
        },
        {
          "internalType": "uint256",
          "name": "tokenId",
          "type": "uint256"
        }
      ],
      "name": "transferFrom",
      "outputs": [],
      "stateMutability": "nonpayable",
      "type": "function"
    },
    {
      "inputs": [],
      "name": "unpause",
      "outputs": [],
      "stateMutability": "nonpayable",
      "type": "function"
    }
  ],
  "bytecode": "0x60806040523480156200001157600080fd5b5060405162002ee538038062002ee583398101604081905262000034916200039b565b8151829082906200004d90600290602085019062000242565b5080516200006390600390602084019062000242565b5050600c805460ff19169055506200007d600033620000dd565b620000a97f9f2df0fed2c77648de5860a4cc508cd0818c85b8b8a1ab4ceeef8d981c8956a633620000dd565b620000d57f65d7a28e3265b37a6474929f336521b332c1681b933f6cb9f3376673440d862a33620000dd565b505062000455565b620000f482826200012060201b6200107b1760201c565b60008281526001602090815260409091206200011b9183906200108962000130821b17901c565b505050565b6200012c828262000150565b5050565b600062000147836001600160a01b038416620001f0565b90505b92915050565b6000828152602081815260408083206001600160a01b038516845290915290205460ff166200012c576000828152602081815260408083206001600160a01b03851684529091529020805460ff19166001179055620001ac3390565b6001600160a01b0316816001600160a01b0316837f2f8788117e7eff1d82e926ec794901d17c78024a50270940304540a733656f0d60405160405180910390a45050565b600081815260018301602052604081205462000239575081546001818101845560008481526020808220909301849055845484825282860190935260409020919091556200014a565b5060006200014a565b828054620002509062000402565b90600052602060002090601f016020900481019282620002745760008555620002bf565b82601f106200028f57805160ff1916838001178555620002bf565b82800160010185558215620002bf579182015b82811115620002bf578251825591602001919060010190620002a2565b50620002cd929150620002d1565b5090565b5b80821115620002cd5760008155600101620002d2565b600082601f830112620002f9578081fd5b81516001600160401b03808211156200031657620003166200043f565b604051601f8301601f19908116603f011681019082821181831017156200034157620003416200043f565b816040528381526020925086838588010111156200035d578485fd5b8491505b8382101562000380578582018301518183018401529082019062000361565b838211156200039157848385830101525b9695505050505050565b60008060408385031215620003ae578182fd5b82516001600160401b0380821115620003c5578384fd5b620003d386838701620002e8565b93506020850151915080821115620003e9578283fd5b50620003f885828601620002e8565b9150509250929050565b600181811c908216806200041757607f821691505b602082108114156200043957634e487b7160e01b600052602260045260246000fd5b50919050565b634e487b7160e01b600052604160045260246000fd5b612a8080620004656000396000f3fe608060405234801561001057600080fd5b50600436106102065760003560e01c80635c975abb1161011a578063a22cb465116100ad578063d0def5211161007c578063d0def5211461043e578063d539139314610451578063d547741f14610478578063e63ab1e91461048b578063e985e9c5146104b257600080fd5b8063a22cb465146103f2578063b88d4fde14610405578063c87b56dd14610418578063ca15c8731461042b57600080fd5b80639010d07c116100e95780639010d07c146103bc57806391d14854146103cf57806395d89b41146103e2578063a217fddf146103ea57600080fd5b80635c975abb146103835780636352211e1461038e57806370a08231146103a15780638456cb59146103b457600080fd5b8063248a9ca31161019d5780633f4ba83a1161016c5780633f4ba83a1461032f57806342842e0e1461033757806342966c681461034a5780634f6ccce71461035d57806355f804b31461037057600080fd5b8063248a9ca3146102d35780632f2ff15d146102f65780632f745c591461030957806336568abe1461031c57600080fd5b80630bb78ec1116101d95780630bb78ec114610288578063162094c41461029b57806318160ddd146102ae57806323b872dd146102c057600080fd5b806301ffc9a71461020b57806306fdde0314610233578063081812fc14610248578063095ea7b314610273575b600080fd5b61021e6102193660046125e4565b6104ee565b60405190151581526020015b60405180910390f35b61023b6104ff565b60405161022a919061282d565b61025b610256366004612589565b610591565b6040516001600160a01b03909116815260200161022a565b610286610281366004612560565b61062b565b005b61023b610296366004612589565b610741565b6102866102a936600461265c565b6107db565b600a545b60405190815260200161022a565b6102866102ce3660046123c5565b610851565b6102b26102e1366004612589565b60009081526020819052604090206001015490565b6102866103043660046125a1565b610883565b6102b2610317366004612560565b6108a5565b61028661032a3660046125a1565b61093b565b61028661095d565b6102866103453660046123c5565b610a05565b610286610358366004612589565b610a20565b6102b261036b366004612589565b610a9a565b61028661037e36600461261c565b610b3b565b600c5460ff1661021e565b61025b61039c366004612589565b610bc8565b6102b26103af366004612379565b610c3f565b610286610cc6565b61025b6103ca3660046125c3565b610d6a565b61021e6103dd3660046125a1565b610d89565b61023b610db2565b6102b2600081565b6102866104003660046124d5565b610dc1565b610286610413366004612400565b610e86565b61023b610426366004612589565b610eb8565b6102b2610439366004612589565b611021565b61028661044c36600461250f565b611038565b6102b27f9f2df0fed2c77648de5860a4cc508cd0818c85b8b8a1ab4ceeef8d981c8956a681565b6102866104863660046125a1565b611071565b6102b27f65d7a28e3265b37a6474929f336521b332c1681b933f6cb9f3376673440d862a81565b61021e6104c0366004612393565b6001600160a01b03918216600090815260076020908152604080832093909416825291909152205460ff1690565b60006104f98261109e565b92915050565b60606002805461050e90612988565b80601f016020809104026020016040519081016040528092919081815260200182805461053a90612988565b80156105875780601f1061055c57610100808354040283529160200191610587565b820191906000526020600020905b81548152906001019060200180831161056a57829003601f168201915b5050505050905090565b6000818152600460205260408120546001600160a01b031661060f5760405162461bcd60e51b815260206004820152602c60248201527f4552433732313a20617070726f76656420717565727920666f72206e6f6e657860448201526b34b9ba32b73a103a37b5b2b760a11b60648201526084015b60405180910390fd5b506000908152600660205260409020546001600160a01b031690565b600061063682610bc8565b9050806001600160a01b0316836001600160a01b031614156106a45760405162461bcd60e51b815260206004820152602160248201527f4552433732313a20617070726f76616c20746f2063757272656e74206f776e656044820152603960f91b6064820152608401610606565b336001600160a01b03821614806106c057506106c081336104c0565b6107325760405162461bcd60e51b815260206004820152603860248201527f4552433732313a20617070726f76652063616c6c6572206973206e6f74206f7760448201527f6e6572206e6f7220617070726f76656420666f7220616c6c00000000000000006064820152608401610606565b61073c83836110c3565b505050565b600f602052600090815260409020805461075a90612988565b80601f016020809104026020016040519081016040528092919081815260200182805461078690612988565b80156107d35780601f106107a8576101008083540402835291602001916107d3565b820191906000526020600020905b8154815290600101906020018083116107b657829003601f168201915b505050505081565b336107e584610bc8565b6001600160a01b0316146108325760405162461bcd60e51b81526020600482015260146024820152731b9bdd081bdddb995c881bd9881d1bdad95b925960621b6044820152606401610606565b6000838152600f6020526040902061084b90838361227d565b50505050565b61085c335b82611131565b6108785760405162461bcd60e51b815260040161060690612892565b61073c838383611228565b61088d82826113d3565b600082815260016020526040902061073c9082611089565b60006108b083610c3f565b82106109125760405162461bcd60e51b815260206004820152602b60248201527f455243373231456e756d657261626c653a206f776e657220696e646578206f7560448201526a74206f6620626f756e647360a81b6064820152608401610606565b506001600160a01b03919091166000908152600860209081526040808320938352929052205490565b61094582826113f9565b600082815260016020526040902061073c9082611473565b6109877f65d7a28e3265b37a6474929f336521b332c1681b933f6cb9f3376673440d862a33610d89565b6109fb576040805162461bcd60e51b81526020600482015260248101919091527f4552433732315072657365744d696e7465725061757365724175746f49643a2060448201527f6d75737420686176652070617573657220726f6c6520746f20756e70617573656064820152608401610606565b610a03611488565b565b61073c83838360405180602001604052806000815250610e86565b610a2933610856565b610a8e5760405162461bcd60e51b815260206004820152603060248201527f4552433732314275726e61626c653a2063616c6c6572206973206e6f74206f7760448201526f1b995c881b9bdc88185c1c1c9bdd995960821b6064820152608401610606565b610a978161151b565b50565b6000610aa5600a5490565b8210610b085760405162461bcd60e51b815260206004820152602c60248201527f455243373231456e756d657261626c653a20676c6f62616c20696e646578206f60448201526b7574206f6620626f756e647360a01b6064820152608401610606565b600a8281548110610b2957634e487b7160e01b600052603260045260246000fd5b90600052602060002001549050919050565b610b657f9f2df0fed2c77648de5860a4cc508cd0818c85b8b8a1ab4ceeef8d981c8956a633610d89565b610bbc5760405162461bcd60e51b815260206004820152602260248201527f6d7573742068617665206d696e74657220726f6c6520746f20736574427365556044820152611c9b60f21b6064820152608401610606565b61073c600e838361227d565b6000818152600460205260408120546001600160a01b0316806104f95760405162461bcd60e51b815260206004820152602960248201527f4552433732313a206f776e657220717565727920666f72206e6f6e657869737460448201526832b73a103a37b5b2b760b91b6064820152608401610606565b60006001600160a01b038216610caa5760405162461bcd60e51b815260206004820152602a60248201527f4552433732313a2062616c616e636520717565727920666f7220746865207a65604482015269726f206164647265737360b01b6064820152608401610606565b506001600160a01b031660009081526005602052604090205490565b610cf07f65d7a28e3265b37a6474929f336521b332c1681b933f6cb9f3376673440d862a33610d89565b610d625760405162461bcd60e51b815260206004820152603e60248201527f4552433732315072657365744d696e7465725061757365724175746f49643a2060448201527f6d75737420686176652070617573657220726f6c6520746f20706175736500006064820152608401610606565b610a036115c2565b6000828152600160205260408120610d82908361163d565b9392505050565b6000918252602082815260408084206001600160a01b0393909316845291905290205460ff1690565b60606003805461050e90612988565b6001600160a01b038216331415610e1a5760405162461bcd60e51b815260206004820152601960248201527f4552433732313a20617070726f766520746f2063616c6c6572000000000000006044820152606401610606565b3360008181526007602090815260408083206001600160a01b03871680855290835292819020805460ff191686151590811790915590519081529192917f17307eab39ab6107e8899845ad3d59bd9653f200f220920489ca2b5937696c31910160405180910390a35050565b610e903383611131565b610eac5760405162461bcd60e51b815260040161060690612892565b61084b84848484611649565b6000818152600460205260409020546060906001600160a01b0316610f1f5760405162461bcd60e51b815260206004820152601f60248201527f55524920717565727920666f72206e6f6e6578697374656e7420746f6b656e006044820152606401610606565b6000828152600f602052604081208054610f3890612988565b80601f0160208091040260200160405190810160405280929190818152602001828054610f6490612988565b8015610fb15780601f10610f8657610100808354040283529160200191610fb1565b820191906000526020600020905b815481529060010190602001808311610f9457829003601f168201915b50505050509050600e8054610fc590612988565b15159050610fd35792915050565b80511561100557600e81604051602001610fee9291906126d5565b604051602081830303815290604052915050919050565b600e6110108461167c565b604051602001610fee9291906126d5565b60008181526001602052604081206104f990611796565b61104a83611045600d5490565b6117a0565b80156110635761106361105c600d5490565b83836107db565b61073c600d80546001019055565b61094582826118ee565b6110858282611914565b5050565b6000610d82836001600160a01b038416611998565b60006001600160e01b0319821663780e9d6360e01b14806104f957506104f9826119e7565b600081815260066020526040902080546001600160a01b0319166001600160a01b03841690811790915581906110f882610bc8565b6001600160a01b03167f8c5be1e5ebec7d5bd14f71427d1e84f3dd0314c0f7b2291e5b200ac8c7c3b92560405160405180910390a45050565b6000818152600460205260408120546001600160a01b03166111aa5760405162461bcd60e51b815260206004820152602c60248201527f4552433732313a206f70657261746f7220717565727920666f72206e6f6e657860448201526b34b9ba32b73a103a37b5b2b760a11b6064820152608401610606565b60006111b583610bc8565b9050806001600160a01b0316846001600160a01b031614806111f05750836001600160a01b03166111e584610591565b6001600160a01b0316145b8061122057506001600160a01b0380821660009081526007602090815260408083209388168352929052205460ff165b949350505050565b826001600160a01b031661123b82610bc8565b6001600160a01b0316146112a35760405162461bcd60e51b815260206004820152602960248201527f4552433732313a207472616e73666572206f6620746f6b656e2074686174206960448201526839903737ba1037bbb760b91b6064820152608401610606565b6001600160a01b0382166113055760405162461bcd60e51b8152602060048201526024808201527f4552433732313a207472616e7366657220746f20746865207a65726f206164646044820152637265737360e01b6064820152608401610606565b611310838383611a27565b61131b6000826110c3565b6001600160a01b038316600090815260056020526040812080546001929061134490849061292e565b90915550506001600160a01b03821660009081526005602052604081208054600192906113729084906128e3565b909155505060008181526004602052604080822080546001600160a01b0319166001600160a01b0386811691821790925591518493918716917fddf252ad1be2c89b69c2b068fc378daa952ba7f163c4a11628f55a4df523b3ef91a4505050565b6000828152602081905260409020600101546113ef8133611a32565b61073c8383611914565b6001600160a01b03811633146114695760405162461bcd60e51b815260206004820152602f60248201527f416363657373436f6e74726f6c3a2063616e206f6e6c792072656e6f756e636560448201526e103937b632b9903337b91039b2b63360891b6064820152608401610606565b6110858282611a96565b6000610d82836001600160a01b038416611afb565b600c5460ff166114d15760405162461bcd60e51b815260206004820152601460248201527314185d5cd8589b194e881b9bdd081c185d5cd95960621b6044820152606401610606565b600c805460ff191690557f5db9ee0a495bf2e6ff9c91a7834c1ba4fdd244a5e8aa4e537bd38aeae4b073aa335b6040516001600160a01b03909116815260200160405180910390a1565b600061152682610bc8565b905061153481600084611a27565b61153f6000836110c3565b6001600160a01b038116600090815260056020526040812080546001929061156890849061292e565b909155505060008281526004602052604080822080546001600160a01b0319169055518391906001600160a01b038416907fddf252ad1be2c89b69c2b068fc378daa952ba7f163c4a11628f55a4df523b3ef908390a45050565b600c5460ff16156116085760405162461bcd60e51b815260206004820152601060248201526f14185d5cd8589b194e881c185d5cd95960821b6044820152606401610606565b600c805460ff191660011790557f62e78cea01bee320cd4e420270b5ea74000d11b0c9f74754ebdbfc544b05a2586114fe3390565b6000610d828383611c18565b611654848484611228565b61166084848484611c50565b61084b5760405162461bcd60e51b815260040161060690612840565b6060816116a05750506040805180820190915260018152600360fc1b602082015290565b8160005b81156116ca57806116b4816129c3565b91506116c39050600a836128fb565b91506116a4565b60008167ffffffffffffffff8111156116f357634e487b7160e01b600052604160045260246000fd5b6040519080825280601f01601f19166020018201604052801561171d576020820181803683370190505b5090505b84156112205761173260018361292e565b915061173f600a866129de565b61174a9060306128e3565b60f81b81838151811061176d57634e487b7160e01b600052603260045260246000fd5b60200101906001600160f81b031916908160001a90535061178f600a866128fb565b9450611721565b60006104f9825490565b6001600160a01b0382166117f65760405162461bcd60e51b815260206004820181905260248201527f4552433732313a206d696e7420746f20746865207a65726f20616464726573736044820152606401610606565b6000818152600460205260409020546001600160a01b03161561185b5760405162461bcd60e51b815260206004820152601c60248201527f4552433732313a20746f6b656e20616c7265616479206d696e746564000000006044820152606401610606565b61186760008383611a27565b6001600160a01b03821660009081526005602052604081208054600192906118909084906128e3565b909155505060008181526004602052604080822080546001600160a01b0319166001600160a01b03861690811790915590518392907fddf252ad1be2c89b69c2b068fc378daa952ba7f163c4a11628f55a4df523b3ef908290a45050565b60008281526020819052604090206001015461190a8133611a32565b61073c8383611a96565b61191e8282610d89565b611085576000828152602081815260408083206001600160a01b03851684529091529020805460ff191660011790556119543390565b6001600160a01b0316816001600160a01b0316837f2f8788117e7eff1d82e926ec794901d17c78024a50270940304540a733656f0d60405160405180910390a45050565b60008181526001830160205260408120546119df575081546001818101845560008481526020808220909301849055845484825282860190935260409020919091556104f9565b5060006104f9565b60006001600160e01b031982166380ac58cd60e01b1480611a1857506001600160e01b03198216635b5e139f60e01b145b806104f957506104f982611d5d565b61073c838383611d82565b611a3c8282610d89565b61108557611a54816001600160a01b03166014611df4565b611a5f836020611df4565b604051602001611a7092919061277b565b60408051601f198184030181529082905262461bcd60e51b82526106069160040161282d565b611aa08282610d89565b15611085576000828152602081815260408083206001600160a01b0385168085529252808320805460ff1916905551339285917ff6391f5c32d9c69d2a47ea670b442974b53935d1edc7fd64eb21e047a839171b9190a45050565b60008181526001830160205260408120548015611c0e576000611b1f60018361292e565b8554909150600090611b339060019061292e565b9050818114611bb4576000866000018281548110611b6157634e487b7160e01b600052603260045260246000fd5b9060005260206000200154905080876000018481548110611b9257634e487b7160e01b600052603260045260246000fd5b6000918252602080832090910192909255918252600188019052604090208390555b8554869080611bd357634e487b7160e01b600052603160045260246000fd5b6001900381819060005260206000200160009055905585600101600086815260200190815260200160002060009055600193505050506104f9565b60009150506104f9565b6000826000018281548110611c3d57634e487b7160e01b600052603260045260246000fd5b9060005260206000200154905092915050565b60006001600160a01b0384163b15611d5257604051630a85bd0160e11b81526001600160a01b0385169063150b7a0290611c949033908990889088906004016127f0565b602060405180830381600087803b158015611cae57600080fd5b505af1925050508015611cde575060408051601f3d908101601f19168201909252611cdb91810190612600565b60015b611d38573d808015611d0c576040519150601f19603f3d011682016040523d82523d6000602084013e611d11565b606091505b508051611d305760405162461bcd60e51b815260040161060690612840565b805181602001fd5b6001600160e01b031916630a85bd0160e11b149050611220565b506001949350505050565b60006001600160e01b03198216635a05180f60e01b14806104f957506104f982611fd6565b611d8d83838361200b565b600c5460ff161561073c5760405162461bcd60e51b815260206004820152602b60248201527f4552433732315061757361626c653a20746f6b656e207472616e73666572207760448201526a1a1a5b19481c185d5cd95960aa1b6064820152608401610606565b60606000611e0383600261290f565b611e0e9060026128e3565b67ffffffffffffffff811115611e3457634e487b7160e01b600052604160045260246000fd5b6040519080825280601f01601f191660200182016040528015611e5e576020820181803683370190505b509050600360fc1b81600081518110611e8757634e487b7160e01b600052603260045260246000fd5b60200101906001600160f81b031916908160001a905350600f60fb1b81600181518110611ec457634e487b7160e01b600052603260045260246000fd5b60200101906001600160f81b031916908160001a9053506000611ee884600261290f565b611ef39060016128e3565b90505b6001811115611f87576f181899199a1a9b1b9c1cb0b131b232b360811b85600f1660108110611f3557634e487b7160e01b600052603260045260246000fd5b1a60f81b828281518110611f5957634e487b7160e01b600052603260045260246000fd5b60200101906001600160f81b031916908160001a90535060049490941c93611f8081612971565b9050611ef6565b508315610d825760405162461bcd60e51b815260206004820181905260248201527f537472696e67733a20686578206c656e67746820696e73756666696369656e746044820152606401610606565b60006001600160e01b03198216637965db0b60e01b14806104f957506301ffc9a760e01b6001600160e01b03198316146104f9565b6001600160a01b0383166120665761206181600a80546000838152600b60205260408120829055600182018355919091527fc65a7bb8d6351c1cf70c95a316cc6a92839c986682d98bc35f958f4883f9d2a80155565b612089565b816001600160a01b0316836001600160a01b0316146120895761208983826120c3565b6001600160a01b0382166120a05761073c81612160565b826001600160a01b0316826001600160a01b03161461073c5761073c8282612239565b600060016120d084610c3f565b6120da919061292e565b60008381526009602052604090205490915080821461212d576001600160a01b03841660009081526008602090815260408083208584528252808320548484528184208190558352600990915290208190555b5060009182526009602090815260408084208490556001600160a01b039094168352600881528383209183525290812055565b600a546000906121729060019061292e565b6000838152600b6020526040812054600a80549394509092849081106121a857634e487b7160e01b600052603260045260246000fd5b9060005260206000200154905080600a83815481106121d757634e487b7160e01b600052603260045260246000fd5b6000918252602080832090910192909255828152600b9091526040808220849055858252812055600a80548061221d57634e487b7160e01b600052603160045260246000fd5b6001900381819060005260206000200160009055905550505050565b600061224483610c3f565b6001600160a01b039093166000908152600860209081526040808320868452825280832085905593825260099052919091209190915550565b82805461228990612988565b90600052602060002090601f0160209004810192826122ab57600085556122f1565b82601f106122c45782800160ff198235161785556122f1565b828001600101855582156122f1579182015b828111156122f15782358255916020019190600101906122d6565b506122fd929150612301565b5090565b5b808211156122fd5760008155600101612302565b80356001600160a01b038116811461232d57600080fd5b919050565b60008083601f840112612343578182fd5b50813567ffffffffffffffff81111561235a578182fd5b60208301915083602082850101111561237257600080fd5b9250929050565b60006020828403121561238a578081fd5b610d8282612316565b600080604083850312156123a5578081fd5b6123ae83612316565b91506123bc60208401612316565b90509250929050565b6000806000606084860312156123d9578081fd5b6123e284612316565b92506123f060208501612316565b9150604084013590509250925092565b60008060008060808587031215612415578081fd5b61241e85612316565b935061242c60208601612316565b925060408501359150606085013567ffffffffffffffff8082111561244f578283fd5b818701915087601f830112612462578283fd5b81358181111561247457612474612a1e565b604051601f8201601f19908116603f0116810190838211818310171561249c5761249c612a1e565b816040528281528a60208487010111156124b4578586fd5b82602086016020830137918201602001949094529598949750929550505050565b600080604083850312156124e7578182fd5b6124f083612316565b915060208301358015158114612504578182fd5b809150509250929050565b600080600060408486031215612523578283fd5b61252c84612316565b9250602084013567ffffffffffffffff811115612547578283fd5b61255386828701612332565b9497909650939450505050565b60008060408385031215612572578182fd5b61257b83612316565b946020939093013593505050565b60006020828403121561259a578081fd5b5035919050565b600080604083850312156125b3578182fd5b823591506123bc60208401612316565b600080604083850312156125d5578182fd5b50508035926020909101359150565b6000602082840312156125f5578081fd5b8135610d8281612a34565b600060208284031215612611578081fd5b8151610d8281612a34565b6000806020838503121561262e578182fd5b823567ffffffffffffffff811115612644578283fd5b61265085828601612332565b90969095509350505050565b600080600060408486031215612670578081fd5b83359250602084013567ffffffffffffffff811115612547578182fd5b600081518084526126a5816020860160208601612945565b601f01601f19169290920160200192915050565b600081516126cb818560208601612945565b9290920192915050565b600080845482600182811c9150808316806126f157607f831692505b602080841082141561271157634e487b7160e01b87526022600452602487fd5b818015612725576001811461273657612762565b60ff19861689528489019650612762565b60008b815260209020885b8681101561275a5781548b820152908501908301612741565b505084890196505b50505050505061277281856126b9565b95945050505050565b7f416363657373436f6e74726f6c3a206163636f756e74200000000000000000008152600083516127b3816017850160208801612945565b7001034b99036b4b9b9b4b733903937b6329607d1b60179184019182015283516127e4816028840160208801612945565b01602801949350505050565b6001600160a01b03858116825284166020820152604081018390526080606082018190526000906128239083018461268d565b9695505050505050565b602081526000610d82602083018461268d565b60208082526032908201527f4552433732313a207472616e7366657220746f206e6f6e20455243373231526560408201527131b2b4bb32b91034b6b83632b6b2b73a32b960711b606082015260800190565b60208082526031908201527f4552433732313a207472616e736665722063616c6c6572206973206e6f74206f6040820152701ddb995c881b9bdc88185c1c1c9bdd9959607a1b606082015260800190565b600082198211156128f6576128f66129f2565b500190565b60008261290a5761290a612a08565b500490565b6000816000190483118215151615612929576129296129f2565b500290565b600082821015612940576129406129f2565b500390565b60005b83811015612960578181015183820152602001612948565b8381111561084b5750506000910152565b600081612980576129806129f2565b506000190190565b600181811c9082168061299c57607f821691505b602082108114156129bd57634e487b7160e01b600052602260045260246000fd5b50919050565b60006000198214156129d7576129d76129f2565b5060010190565b6000826129ed576129ed612a08565b500690565b634e487b7160e01b600052601160045260246000fd5b634e487b7160e01b600052601260045260246000fd5b634e487b7160e01b600052604160045260246000fd5b6001600160e01b031981168114610a9757600080fdfea2646970667358221220d1be29c4f3dde02331bd8b3e161dfed04aa26cca7bef183708457b1ff10841dd64736f6c63430008040033",
  "linkReferences": {},
  "deployedLinkReferences": {}
}